:020000040800F2
:10000000B80A002045010008D90A0008B306000814
:10001000D50A0008ED010008E919000800000000F9
:10002000000000000000000000000000B90C000803
:100030002302000800000000610B0008CD0D00083D
:100040005F0100085F0100085F0100085F01000810
:100050005F0100085F0100085F0100085F01000800
:100060005F0100085F0100085F0100085F010008F0
:100070005F0100085F0100085F0100085F010008E0
:100080005F0100085F0100085F0100085F010008D0
:100090005F0100085F0100085F0100085F010008C0
:1000A0005F0100085F0100085F0100085F010008B0
:1000B0005F0100085F010008E10F00085F01000810
:1000C0005F0100085F0100085F0100085F01000890
:1000D0005F0100085F0100088D1300089D150008EE
:1000E0005F0100085F0100085F0100085F01000870
:1000F0005F0100085F0100085F0100085F01000860
:100100005F0100085F0100085F0100085F0100084F
:100110005F0100085F0100085F0100085F0100083F
:100120005F0100085F0100085F0100085F0100082F
:10013000DFF80CD000F048F8004800473D1D0008EB
:10014000B80A00200648804706480047FEE7FEE759
:10015000FEE7FEE7FEE7FEE7FEE7FEE7FEE7FEE777
:100160000D0E00083101000830B505462A460B4641
:1001700012F8010B13F8014B08B1A042F8D01CB1E2
:10018000002802D06D1CF1E7284630BD421C10F853
:10019000011B0029FBD1801A704730B50B46014680
:1001A00000202022012409E021FA02F59D4205D316
:1001B00003FA02F5491B04FA02F52844151EA2F1C0
:1001C0000102F1DC30BD0000064C074D06E0E0689E
:1001D00040F0010394E8070098471034AC42F6D38E
:1001E000FFF7AAFFBC200008DC20000800BFFEE7E4
:1001F00070B50446206808B9002070BD25682068E5
:1002000080682060286801F03FFD284601F03CFD31
:10021000206808B900206060A068401EA06001202E
:10022000EBE7704710B500244FF480510C4800F004
:100230003EFA4FF47A7001F0EFFC0CE04FF4FA73E1
:10024000002208A108A000F02BF900B110BD00F0B9
:1002500095F8601CC4B20A2CF0DB00BFF6E7000082
:10026000000801404F4B00004154000038B50446DF
:100270000121042000F096FC4FF48050ADF80000FE
:1002800010208DF8030003208DF8020069460C4809
:1002900000F080F94FF40060ADF8000069460848AE
:1002A00000F078F9204601F027F94FF48051044816
:1002B00000F0FDF94FF40061014800F0F6F938BD97
:1002C0000008014030B59FB004460D462B4622463B
:1002D00006A101A801F09AFB41F28833002208A18F
:1002E00001A800F0DDF81FB030BD000041542B43E1
:1002F000574A41503D222573222C222573220000AB
:100300004F4B000010B5044624B1012C0AD0022C3A
:1003100018D10FE040F6C4130BA20EA10EA000F0FE
:10032000BFF810BD40F6C41307A20AA10DA000F04B
:10033000B7F8F6E740F6C41303A206A10CA000F03C
:10034000AFF8EEE70020ECE76E6F206368616E6740
:10035000650000004F4B000041542B43574D4F4464
:10036000453D310041542B43574D4F44453D3200EC
:1003700041542B43574D4F44453D330010B54FF486
:100380008051064800F091F94FF4FA7001F044FCF6
:100390004FF48051014800F08AF910BD0008014077
:1003A00010B54FF400611B4800F081F9FFF73AFFE8
:1003B0000020FFF7A7FF4FF4FA73002216A118A040
:1003C00000F06EF84FF4FA73002217A117A000F0A6
:1003D00067F84FF4FA73002213A118A000F060F838
:1003E0004FF4FA73002210A117A000F059F800BFD3
:1003F00019A11CA0FFF766FF0028F9D000BF4FF439
:10040000FA73002208A11BA000F04AF80028F6D1D8
:1004100010BD0000000801407265616479000000B1
:1004200041542B52535400004F4B000041542B4376
:1004300049504D4F44453D300000000041542B438E
:1004400049504D55583D310041542B434950534577
:10045000525645523D300000716773747564696F80
:10046000000000004A656E73655F576966695F3515
:100470004700000041542B43495053544152543DCE
:10048000302C22544350222C2234372E3130332E3C
:1004900032392E3331222C3630303030000000001B
:1004A0002DE9F04106460C4615461F462548B0F892
:1004B00000046FF30E002349A1F80004324622A184
:1004C000234801F00EFA1CB915B90120BDE8F081EE
:1004D000B8B201F0A1FB00201A49B1F80014C1F331
:1004E0000E01184A505411461AA001F07FFAB4B117
:1004F000ADB121461348FFF737FE08B1012000E0F7
:10050000002040B929460F48FFF72EFE08B1012010
:1005100000E0002008B10120D8E70020D6E744B170
:1005200021460848FFF720FE08B10120CEE7002051
:10053000CCE729460348FFF717FE08B10120C5E7BD
:100540000020C3E7B000002025730D0A0000000062
:1005500000440040257300002DE9F04104460E469A
:10056000174614B90020BDE8F0810C2001F0C8FC4A
:1005700005462E606F600020A860206810B92560D5
:10058000656002E0606885606560A068401CA060EE
:100590000120E8E72DE9F041024600250026002071
:1005A00000230024002791F803C00CF00F0591F8F8
:1005B00003C00CF0100CBCF1000F03D091F802C086
:1005C0004CEA050591F800C0BCF1000F31D0146869
:1005D00000202BE04FF0010C0CFA00F3B1F800C042
:1005E0000CEA03069E4220D183004FF00F0C0CFA58
:1005F00003F7BC4305FA03FC4CEA040491F803C07A
:10060000BCF1280F06D14FF0010C0CFA00FCC2F827
:1006100014C00AE091F803C0BCF1480F05D14FF0B7
:10062000010C0CFA00FCC2F810C0401C0828D1D301
:100630001460B1F800C0BCF1FF0F34DD5468002035
:100640002EE000F1080C4FF0010808FA0CF3B1F8A5
:1006500000C00CEA03069E4221D183004FF00F0C2C
:100660000CFA03F7BC4305FA03FC4CEA040491F8C6
:1006700003C0BCF1280F05D100F1080C08FA0CF8F2
:10068000C2F8148091F803C0BCF1480F07D100F103
:10069000080C4FF0010808FA0CF8C2F81080401C52
:1006A0000828CED35460BDE8F081416170470161F4
:1006B000704700BFFEE70021016041608160704724
:1006C0002DE9F04704468846002605E0A05D3A285B
:1006D00000D103E0701CC6B24645F7DB00BF701CBA
:1006E000205C412825D1B01C205C542821D1F01C6D
:1006F000205C5F280CD13748FFF748FD00F0FF0968
:1007000060793038C2B24946324801F0ADFC0EE0A3
:100710000021A8F102002154A01900F101094FF4B1
:10072000FA7300222CA14846FFF7BAFE00BFBDE8CD
:10073000F087751C605D23280CD107E028466D1CEE
:10074000205C232802D1601900F04AF8605D00287F
:10075000F4D1ECE7751C37E0605DC0F59277681C5A
:100760000546205C312803D1B9B2800700F061FD55
:10077000605D322803D1B9B2400700F05CFD605DD6
:10078000332803D1B9B2154800F053FD605D342819
:1007900003D1B9B2114800F04EFD28466D1C205C13
:1007A000352803D1B9B20D4800F047FD681E215C21
:1007B000681C205C814204D14FF4C87001F02CFA0F
:1007C00002E0282001F028FA605D08B1642DC3DB47
:1007D00000BFACE7000000204F4B000000040040C9
:1007E0002DE9F0439FB0044600201E909EA103C94E
:1007F000CDE91C019EA103C9CDE91A019EA30FCB2F
:1008000016AD0FC5A0A3D3E90012D3E90203CDE9C9
:100810001403CDE91212A0A0006811909FA00068F7
:1008200010909FA000680F909EA207CA0CAB07C350
:100830009FA207CA09AB07C3A0A207CA06AB07C39A
:10084000A1A000680590A1A0006804904FF00008E6
:1008500000254FF0010900261EAF0EE028466D1C52
:10086000205C3A2804D1404608F101084DF8205098
:10087000322D02DD1FB0BDE8F083B8F1030FEDD1DA
:100880000198205C642848D004DC612807D06328E4
:100890007ED130E0732803D07428F9D14FE000BF37
:1008A0000298205CA0F13009029D06E0605D09EB32
:1008B000890100EB4100A0F13009681C0546205C6D
:1008C000302802DB605D3928F0DD0098205C662866
:1008D00008D06C2808D06D2802D0722808D105E015
:1008E0001CAF06E01AAF04E016AF02E012AF00E062
:1008F00000BF00BF72E00298205C312806D0322889
:1009000002D0332806D103E011AF04E010AF02E0BB
:100910000FAF00E000BF00BF60E00298205C31280C
:1009200006D0322802D0332806D103E00CAF04E011
:1009300009AF02E006AF00E000BF00BF4EE0029842
:10094000205CA0F130050298401C205C302827DB99
:100950000298401C205C392822DC0298401C205C54
:1009600005EB850100EB4100A0F130050298801CE9
:10097000205C302814DB0298801C205C39280FDCB6
:100980000298801C205C05EBC50101EB051100E01D
:1009900023E000EB8100A0F13005B42D00DD1DE067
:1009A000E81D0E2190FBF1F50098205C662809D027
:1009B0006D280FD19DF81400401BC0B28DF81400B3
:1009C00005AF08E09DF810002844C0B28DF8100073
:1009D00004AF00E000BF00BF00E000BF00BF37E091
:1009E000002632E0B85DC0F59278701C0646385C8F
:1009F000312804D11FFA88F1800700F01AFCB85D95
:100A0000322804D11FFA88F1400700F014FCB85DC9
:100A1000332804D11FFA88F12D4800F00AFCB85D94
:100A2000342804D11FFA88F1294800F004FC30462C
:100A3000761C385C352804D11FFA88F1244800F070
:100A4000FCFB4FF4C87001F0E7F8B85D0028C9D18D
:100A5000B9F1000F06DD142E04DA5FEA0900A9F1EE
:100A60000109BDD100BF05E76B34713400000000FF
:100A70006B356535000000006535713473326735BC
:100A80006B326535000000006535713461326735C1
:100A90006B326535000000006132000061310000FA
:100AA0006133000073326B3471346B32000000002C
:100AB00073316B3471346B310000000073336B346D
:100AC00071346B33000000007235000064340000A4
:100AD0000004004000BFFEE77047000070B5002131
:100AE00000230F22C47804B3154C246804F4E06496
:100AF000C4F5E064210AC1F10403CA40447804FA51
:100B000003F184781440214309010E4C0678A15565
:100B1000047804F01F050124AC4005786D11AD0088
:100B200005F1E025C5F8004109E0047804F01F054F
:100B30000124AC40044D0678761145F8264070BD7E
:100B40000CED00E000E400E080E100E00249014338
:100B5000024A1160704700000000FA050CED00E049
:100B60007047000029B1064AD2690243044BDA619A
:100B700004E0034AD2698243014BDA617047000006
:100B80000010024029B1064A12690243044B1A615F
:100B900004E0034A12698243014B1A617047000066
:100BA0000010024029B1064A92690243044B9A613F
:100BB00004E0034A92698243014B9A617047000046
:100BC0000010024029B1064AD2680243044BDA60A1
:100BD00004E0034AD2688243014BDA6070470000A8
:100BE0000010024030B500210022002400232D4DCA
:100BF0006D6805F00C0121B1042905D0082923D125
:100C000005E0294D056022E0274D05601FE0254DD8
:100C10006D6805F47012234D6D6805F4803402256B
:100C200005EB92421CB9214D554305600BE01D4D6B
:100C30006D6805F400351DB11C4D5543056002E09B
:100C4000194D5543056002E0174D056000BF00BF18
:100C5000144D6D6805F0F0010909154D6B5C0568D0
:100C6000DD4045600F4D6D6805F4E061090A104DE7
:100C70006B5C4568DD4085600A4D6D6805F4605128
:100C8000C90A0B4D6B5C4568DD40C560054D6D685C
:100C900005F44041890B074D6B5CC568B5FBF3F566
:100CA000056130BD0010024000127A0000093D00CD
:100CB0002000002030000020704710B500F002F83E
:100CC00010BD00000CB50020019000903348006872
:100CD00040F480303149086000BF3048006800F4BB
:100CE000003000900198401C0190009818B90198BC
:100CF000B0F5A06FF1D12948006800F4003010B1C0
:100D00000120009001E0002000900098012843D1CC
:100D10002348006840F01000214908600846006838
:100D200020F0030008600846006840F002000860F8
:100D30001A484068194948600846406848600846B3
:100D4000406840F4806048600846406820F47C10A9
:100D500048600846406840F4E8104860084600686B
:100D600040F08070086000BF0C48006800F0007020
:100D70000028F9D00948406820F00300074948607E
:100D80000846406840F00200486000BF03484068E1
:100D900000F00C000828F9D10CBD00000010024042
:100DA00000200240042808D14FF0E021096941F0F9
:100DB00004014FF0E022116107E04FF0E0210969E2
:100DC00021F004014FF0E0221161704770470000EC
:100DD00010B504466FF00400FFF7E4FFE11704EBE1
:100DE0005171C1F3C701074A11701046007800EB3A
:100DF0004001C1EBC0104FF6FF7101EAC00002498B
:100E0000088010BD380000203A00002010B51348BB
:100E1000006840F001001149086008464068104928
:100E200008400E494860084600680E4908400B49D2
:100E300008600846006820F4802008600846406882
:100E400020F4FE0048604FF41F008860FFF735FF74
:100E50004FF000600449086010BD0000001002401F
:100E60000000FFF8FFFFF6FE08ED00E030B589B0A6
:100E700005460C4601210420FFF794FE0121084697
:100E8000FFF770FE01210846FFF78CFE0F20ADF83A
:100E9000040003208DF8060018208DF8070001A932
:100EA0001A48FFF777FBADF81C50ADF8184000204A
:100EB000ADF81E00ADF81A0006A94FF0804000F012
:100EC000BFF96020ADF808000220ADF81000012045
:100ED000ADF80A0002A9800700F09CF802A94FF0C3
:100EE000804000F0EDF80821C80600F0DFF8082186
:100EF000C80600F037F90121880700F072F80121D7
:100F0000880700F07AF809B030BD00000008014001
:100F100030B589B005460C4601210C20FFF742FE92
:100F200001210220FFF71EFE01210846FFF73AFECD
:100F3000C020ADF8040003208DF8060018208DF8BD
:100F4000070001A92348FFF725FB0120ADF80400A5
:100F500003208DF8060018208DF8070001A91E480F
:100F6000FFF718FBADF81C50ADF818400020ADF8A5
:100F70001E00ADF81A0006A9184800F061F96020BB
:100F8000ADF808000220ADF810000120ADF80A000D
:100F900002A9124800F03EF802A9104800F090F8AB
:100FA00002A90E4800F0ECF808210C4800F07EF889
:100FB00008210A4800F0D6F80821084800F030F966
:100FC0000121064800F00DF80121044800F015F851
:100FD00009B030BD00080140000C01400004004091
:100FE000704721B1028842F08002028004E002884A
:100FF0004FF67F731A400280704721B1028842F099
:101000000102028004E002884FF6FE731A4002805B
:101010007047000070B5002400220023058C4FF6B5
:10102000FE7635400584028C8388048B4FF68F75DD
:101030002C40B51E2C400D882C43751E2A400D896E
:101040002A434D882A43144DA8420BD0134DA84281
:1010500008D0134DA84205D0124DA84202D0124D1F
:10106000A84213D14FF6F7752A404D892A434FF60F
:10107000FB752A408D882A434FF6FF652B404FF6BB
:10108000FF552B408D892B43CD892B4383800483CF
:10109000CD888586028470BD002C0140003401405B
:1010A0000040014000440140004801400A46002140
:1010B000018B4FF6F773194011430183704700000D
:1010C00070B5002400220023058C4FF6EF763540E2
:1010D0000584028C8388048B48F6FF752C404FF6FC
:1010E000FF452C400D884FF6FF7606EA05252C4378
:1010F0004FF6DF752A400D8906EA05152A434D880B
:1011000006EA05152A43154DA84202D0144DA842FF
:101110001DD14FF67F752A404D894FF6FF7606EABE
:1011200005152A434FF6BF752A408D8806EA051536
:101130002A434FF6FF352B404FF2FF752B408D8928
:1011400006EA85052B43CD8906EA85052B43838076
:101150000483CD880587028470BD0000002C014007
:10116000003401400A460021018B4FF2FF73194001
:101170004FF6FF7303EA022319430183704700000F
:1011800070B5002400220023058C4FF6FF66354021
:101190000584028C8388848B4FF68F752C404FF624
:1011A000FC752C400D882C434FF6FF552A400D89C5
:1011B0004FF6FF7606EA05252A434D8806EA0525FF
:1011C0002A43154DA84202D0144DA8421DD14FF21A
:1011D000FF752A404D894FF6FF7606EA05252A431A
:1011E0004FF6FF352A408D8806EA05252A434EF63C
:1011F000FF752B404DF6FF752B408D8906EA0515CE
:101200002B43CD8906EA05152B4383808483CD8843
:101210008587028470BD0000002C0140003401402D
:101220000A460021818B4FF6F773194011438183E1
:10123000704781867047018770478187704700003B
:10124000002202881D4B98420ED01D4B98420BD0B5
:10125000B0F1804F08D01B4B984205D01A4B9842F2
:1012600002D01A4B984204D14FF68F731A404B8824
:101270001A43174B984207D0164B984204D04FF6AA
:10128000FF431A40CB881A4302808B8883850B88E2
:1012900003850A4B98420BD0094B984208D00E4B5D
:1012A000984205D00D4B984202D00D4B984201D187
:1012B0000B7A03860123838270470000002C0140D3
:1012C000003401400004004000080040000C0040D1
:1012D0000010004000140040004001400044014064
:1012E0000048014010B586B00446012144F20400D4
:1012F000FFF758FC234800F0D5F94FF40070ADF823
:10130000140003208DF8160018208DF8170005A989
:101310001D48FFF73FF94FF48060ADF8140004203A
:101320008DF8170005A91848FFF734F925208DF826
:10133000000003208DF801008DF8020001208DF8D7
:1013400003006846FFF7CAFB01940020ADF80800CF
:10135000ADF80A00ADF80C00ADF810000C20ADF8A7
:101360000E0001A9074800F047FA012240F225517A
:10137000044800F01CFA0121024800F086F906B08A
:1013800010BD0000003801400008014010B50020E9
:101390004E4908604E48007838B901204C49087021
:1013A000642000F0ADFD4B49086040F225514A48E9
:1013B00000F0D3F920B3484800F08AFAC4B2474895
:1013C00001780078401C454A107042480068445437
:1013D0004348B0F80004C0F30E0040F2FF318842E9
:1013E0000EDA3F49B1F80014C1F30E00411C3C4A2B
:1013F000B2F8002461F30E023949A1F800240C541C
:1014000040F22441344800F0A8F9012820D13448A2
:10141000B0F8000420F4004000F500403049A1F885
:1014200000042D4800F054FAC4B22C48017800782A
:10143000401C2A4A107027480068445429A12848B3
:10144000FEF792FE08B1012000E000202849087054
:101450002048006800782B2808D000201F49087019
:101460001B4908701B48006800F00EFC1848007803
:1014700002281ED119480078401E16490968085CE8
:1014800025280DD1154802781248016819480068CE
:10149000FFF762F80020114908700D49087008E054
:1014A0000C48006800F0F0FB0020094908700B4967
:1014B00008700A480078401E06490968085C24281C
:1014C00002D102200249087010BD00001000002067
:1014D0000C000020140000200044004018000020F0
:1014E000B0000020434C4F5345440D0A000000005B
:1014F0003C0000201C00002010B586B004460121ED
:101500004804FFF72FFB01210420FFF74BFB0420C9
:10151000ADF8140003208DF8160018208DF8170080
:1015200005A91C48FFF736F80820ADF81400042080
:101530008DF8170005A91748FFF72CF826208DF81D
:10154000000002208DF801008DF8020001208DF8C6
:1015500003006846FFF7C2FA01940020ADF80800C6
:10156000ADF80A00ADF80C00ADF810000C20ADF895
:101570000E0001A9084800F03FF9012240F2255170
:10158000054800F014F90121034800F07EF806B088
:1015900010BD0000000801400044004010B540F2BA
:1015A00025510A4800F0D9F850B1084800F090F9E8
:1015B000C4B2204600F0FEFC2146044800F08DF93C
:1015C0004021024800F058F810BD000000480040DB
:1015D00010B586B0044601218804FFF7C3FA012143
:1015E0000820FFF7DFFA4FF48060ADF81400032005
:1015F0008DF8160018208DF8170005A91C48FEF775
:10160000C9FF4FF40060ADF8140004208DF81700F6
:1016100005A91748FEF7BEFF27208DF8000000201F
:101620008DF801008DF8020001208DF80300684656
:10163000FFF754FA01940020ADF80800ADF80A0055
:10164000ADF80C00ADF810000C20ADF80E0001A9AB
:10165000084800F0D1F8012240F22551054800F079
:10166000A6F80121034800F010F806B010BD0000F4
:10167000000C01400048004001F40072B2F5007F08
:1016800000D100BFCA430280704721B1828942F471
:101690000052828104E082894DF6FF731A408281F4
:1016A0007047000010B504462048844209D101214A
:1016B0008803FFF787FA00214FF48040FFF782FA92
:1016C00032E01B48844209D101214804FFF75AFA4D
:1016D00000214FF40030FFF755FA25E01548844209
:1016E00009D101218804FFF74DFA00214FF4802031
:1016F000FFF748FA18E01048844209D10121C804D4
:10170000FFF740FA00214FF40020FFF73BFA0BE00F
:101710000A48844208D101210805FFF733FA002165
:101720004FF48010FFF72EFA10BD00000038014082
:101730000044004000480040004C00400050004081
:1017400002460020B1F5007F00D100BF13880B4096
:101750000BB1012000E00020704770B50246002464
:1017600000230025002040F66A16B14200D100BFD8
:10177000C1F3421501F01F03012606FA03F3012D00
:1017800002D19689334006E0022D02D1168A3340F9
:1017900001E0968A33400C12012606FA04F41688FA
:1017A000344013B10CB1012000E0002070BDF0B551
:1017B0000346002400260025002040F66A17B9429F
:1017C00000D100BF1846C1F3421401F01F060127E3
:1017D00007FA06F5012C01D10C3004E0022C01D1EE
:1017E000103000E014301AB107682F43076002E0A0
:1017F0000768AF430760F0BD2DE9F04786B00546A6
:101800000E460024A24600BFA1460027B08900B1C1
:1018100000BF2F462C8A4CF6FF700440F08804432A
:101820002C82AC894EF6F3100440B088318908430D
:10183000718908430443AC81AC8A4FF6FF400440F1
:10184000B0890443AC8201A8FFF7CCF91F48874256
:1018500002D1DDF810A001E0DDF80CA0A88900F4A9
:10186000004040B10AEBCA0000EB0A1031684900A1
:10187000B0FBF1F807E00AEBCA0000EB0A10316890
:101880008900B0FBF1F86420B8FBF0F004012009F6
:10189000642101FB1089A88900F4004040B1322086
:1018A00000EBC900B0FBF1F000F00700044308E0D2
:1018B000322000EB09106421B0FBF1F000F00F00C2
:1018C00004432C8106B0BDE8F087000000380140D9
:1018D00001468888C0F308007047C1F3080282807F
:1018E00070470FB470B586B006460CA8019073E03F
:1018F0000B9800785C281CD10B98401C0B9000784A
:101900006E2809D072280FD10D213046FFF7E5FF70
:101910000B98401C0B900BE00A213046FFF7DDFFCF
:101920000B98401C0B9003E00B98401C0B9000BFE1
:101930004BE00B980078252840D10B98401C0B9069
:101940000078642818D0732833D1019810C801900A
:101950000BE021783046FFF7C0FF00BF8021304602
:10196000FFF7EEFE0028F9D0641C20780028F0D1A3
:101970000B98401C0B9020E0019820C801900A228F
:1019800002A9284600F0A8F902AC0BE02178304605
:10199000FFF7A3FF00BF80213046FFF7D1FE0028EC
:1019A000F9D0641C20780028F0D10B98401C0B90D3
:1019B00003E00B98401C0B9000BF06E00B9810F85A
:1019C000011B0B903046FFF788FF00BF8021304697
:1019D000FFF7B6FE0028F9D00B980078002887D1D1
:1019E00006B070BC5DF814FB00BFFEE70FB4054BFA
:1019F00010B503A9044A029800F02CF810BC5DF859
:101A000014FB0000651C0008400000200FB4084BC8
:101A100010B504A902AA039800F01CF8044602A914
:101A2000002000F0F3F8204610BC5DF814FB000025
:101A30000D1C000802E008C8121F08C1002AFAD1D4
:101A400070477047002001E001C1121F002AFBD13E
:101A5000704700002DE9FF4F8BB09A460F460546B0
:101A6000002606E025280BD052460D9990476D1CA4
:101A7000761C28780028F5D10FB03046BDE8F08FED
:101A80000024A0460122604900E0044315F8013F0C
:101A9000203B02FA03F00842F7D128782E2817D10C
:101AA00015F8010F44F004042A280ED06FF02F021D
:101AB0002878A0F1300109290AD808EB880102EB47
:101AC000410100EB01086D1CF2E757F8048B6D1C17
:101AD000287869283ED006DC0028CDD063280BD0BA
:101AE000642804D136E0732810D075284BD05246B4
:101AF0000D999047761C85E017F8040B8DF80000CF
:101B000000208DF80100E946012003E057F8049B0E
:101B10004FF0FF3061074FF0000401D40AE0641C6D
:101B200044450DDA8442FADB19F804100029F6D195
:101B300006E0641C8442FCDB19F804100029F8D18B
:101B4000264404E019F8010B52460D999047641E93
:101B5000F8D257E001CF4FF00A0B002802DA4042DA
:101B60002D2102E0210504D52B218DF8241001211F
:101B700003E0E10705D02021F7E70DF120090891E6
:101B80000CE00021F9E701CF4FF00A0BF9E75946C5
:101B9000FEF703FB01F1300209F8012D0028F6D110
:101BA000ADEB090000F1200B600701D44FF00108F4
:101BB000D84502DDA8EB0B0000E0002080460024A1
:101BC00006E009A85246005D0D999047641C761CFA
:101BD00008988442F5DB04E0302052460D99904786
:101BE000761CB8F10001A8F10108F5DC05E019F850
:101BF000010B52460D999047761CBBF10001ABF1E9
:101C0000010BF4DC6D1C34E7092801000A68531C41
:101C10000B601070704700000146114A12884A4359
:101C20004FF0E0235A6100229A611A46126942F08D
:101C300001021A6100BF4FF0E022106900F00102BA
:101C40001AB100F48032002AF5D04FF0E022126978
:101C500022F001024FF0E0231A6100229A617047DE
:101C60003A00002070B504460D46E1B20548FFF782
:101C700034FE00BF80210348FFF762FD0028F9D041
:101C8000204670BD0038014010B5002821D0114B0E
:101C90000022001F196803E0814203D80A46496800
:101CA0000029F9D152B11368841A9C4204D100680A
:101CB00018441060104602E0506000E0186039B12E
:101CC00002680B1A934203D10B681A4402604968F8
:101CD000416010BD44000020F0B503460D46164695
:101CE000002729460A2E03D0002008702846F0BDA0
:101CF00033B9302001F8010B002008702846F6E7C0
:101D0000002B03DA2D2001F8010B5B4242F2107226
:101D10000DE093FBF2F404B937B104F1300001F89F
:101D2000010B04FB123301270A2092FBF0F2002A78
:101D3000EFDC002008702846D9E700004820FFF7B4
:101D400047F84FF4A060FEF701FF4FF4E130FFF7D2
:101D50003FFC4FF4E130FFF7C5FA41F61F41C720C1
:101D6000FFF784F841F61F41C720FFF7D1F800F0D4
:101D7000FDF80C2000F0C4F84C49086008460068E3
:101D8000FEF799FC4FF4E130FEF770FAFEF708FB1E
:101D90004748FEF7FBF9C4B200222146444800F050
:101DA00063F94348FEF7F2F9C4B2012221464048E4
:101DB00000F05AF93E48FEF7E9F9C4B20222214682
:101DC0003B4800F051F93A48FEF7E0F9C4B203226B
:101DD0002146374800F048F93548FEF7D7F9C4B234
:101DE00004222146324800F03FF95DE03148007896
:101DF000012803D02F480078022818D100202E494E
:101E000008602E4801680068401C2C4A10602C486D
:101E100081420FD10020274908702A480068FFF747
:101E200033FF0020284908702449086002E00020A0
:101E3000224908601D4800688068F8B11B480068A6
:101E40000068046819480068006845686078492897
:101E500005D0A078502802D0E078442809D12DB1CF
:101E60000020605529462046FEF72AFC00202070FD
:101E700000250E480068FEF7BBF900BF0E48016858
:101E80000068401C0C4A1060104881420CD9094877
:101E9000007830B94FF4FA7300220DA10DA0FEF7BF
:101EA000FFFA002004490860A0E700001C000020A1
:101EB000000000200C00002008000020100000207E
:101EC000400D0300140000201800002080969800A8
:101ED0004F4B000041542B43495053544152543D01
:101EE000302C22544350222C2234372E3130332EC2
:101EF00032392E3331222C363030303000000000A1
:101F0000F0B50B30154D20F007010024144A0FE006
:101F100003688B420BD38B4205D95E1A431847687E
:101F2000C3E9006700E04368136002C004E0021DDB
:101F300010680028ECD12046002802D1286808B19A
:101F40000020F0BD064A07481060074A121A22F026
:101F50000702C0E9002401202860D7E748000020DC
:101F600044000020BC040020B806002010B5B921B0
:101F70008807FFF75EF93220FFF74EFEB921880788
:101F8000FFF759F93220FFF747FEB9210848FFF75C
:101F900050F93220FFF740FEB3210548FFF74BF917
:101FA0003220FFF739FEBF210148FFF746F910BD87
:101FB0000004004010B50446FE2C01D03F2C06D191
:101FC0002448007818B901202249087010BD214822
:101FD0000078012805D12048047002201D490870AE
:101FE000F4E71C480078022832D1FF2C01D03F2CA6
:101FF0001BD11948007819490978884207D0002078
:10200000164908701449087012490870DEE700206C
:102010001349124A12788854104908700D49087003
:102020000F4910A0FFF7E2FCD0E70C4800786428C5
:1020300005DB00200949087006490870C6E7084812
:1020400006490978445405480078401C0349087043
:1020500000BFBBE734000020350000203600002020
:102060004C0000202573000070B58EB004460D466C
:1020700016462B46324609A101A8FFF7C7FC4FF4CC
:10208000FA7300220AA101A8FEF70AFA224609A162
:102090000948FFF726FC0EB070BD000041542B43E9
:1020A000495053454E443D25642C256400000000F2
:1020B0003C0000002573000000440040DC200008C4
:1020C000000000204C000000341A000828210008FD
:1020D0004C0000206C0A0000441A000869643A3180
:1020E0000D0A0000000000000000000000000000D9
:1020F00000000000000000000000000000000000E0
:102100000102030401020304060708090204060889
:1021100000000000000000000000000000000000BF
:082120000000000000000000B7
:0400000508000131BD
:00000001FF
