:020000040800F2
:100000000009002045010008390700082B060008F8
:1000100035070008DD010008C915000800000000D0
:1000200000000000000000000000000019090008A6
:10003000E101000800000000C10700082D0A0008C7
:100040005F0100085F0100085F0100085F01000810
:100050005F0100085F0100085F0100085F01000800
:100060005F0100085F0100085F0100085F010008F0
:100070005F0100085F0100085F0100085F010008E0
:100080005F0100085F0100085F0100085F010008D0
:100090005F0100085F0100085F0100085F010008C0
:1000A0005F0100085F0100085F0100085F010008B0
:1000B0005F0100085F010008410C00085F010008B3
:1000C0005F0100085F0100085F0100085F01000890
:1000D0005F0100085F010008ED0F00087D110008B6
:1000E0005F0100085F0100085F0100085F01000870
:1000F0005F0100085F0100085F0100085F01000860
:100100005F0100085F0100085F0100085F0100084F
:100110005F0100085F0100085F0100085F0100083F
:100120005F0100085F0100085F0100085F0100082F
:10013000DFF80CD000F040F800480047CD18000868
:10014000000900200648804706480047FEE7FEE712
:10015000FEE7FEE7FEE7FEE7FEE7FEE7FEE7FEE777
:100160006D0A00083101000830B505462A460B46E5
:1001700012F8010B13F8014B08B1A042F8D01CB1E2
:10018000002802D06D1CF1E7284630BD30B50B4683
:10019000014600202022012409E021FA02F59D42B7
:1001A00005D303FA02F5491B04FA02F52844151E8B
:1001B000A2F10102F1DC30BD064C074D06E0E0681B
:1001C00040F0010394E8070098471034AC42F6D39E
:1001D000FFF7B2FFE01A0008001B000800BFFEE7AF
:1001E0007047000010B500244FF480510C4800F017
:1001F0001AFA4FF47A7001F0FFFA0CE04FF4FA7338
:10020000002208A108A000F025F900B110BD00F0FF
:1002100095F8601CC4B20A2CF0DB00BFF6E70000C2
:10022000000801404F4B00004154000038B504461F
:100230000121042000F0E6FA4FF48050ADF80000F0
:1002400010208DF8030003208DF8020069460C4849
:1002500000F05CF94FF40060ADF800006946084812
:1002600000F054F9204600F037FF4FF48051044865
:1002700000F0D9F94FF40061014800F0D2F938BD1F
:100280000008014030B59FB004460D462B4622467B
:1002900006A101A801F0AAF941F28833002208A1C1
:1002A00001A800F0D7F81FB030BD000041542B4327
:1002B000574A41503D222573222C222573220000EB
:1002C0004F4B000010B5044624B1012C0AD0022C7B
:1002D00018D10FE040F6C4130BA20EA10EA000F03F
:1002E000B9F810BD40F6C41307A20AA10DA000F092
:1002F000B1F8F6E740F6C41303A206A10CA000F083
:10030000A9F8EEE70020ECE76E6F206368616E6786
:10031000650000004F4B000041542B43574D4F44A4
:10032000453D310041542B43574D4F44453D32002C
:1003300041542B43574D4F44453D330010B54FF4C6
:100340008051064800F06DF94FF4FA7001F054FA4C
:100350004FF48051014800F066F910BD00080140DB
:1003600010B54FF400611B4800F05DF9FFF73AFF4C
:100370000020FFF7A7FF4FF4FA73002216A118A080
:1003800000F068F84FF4FA73002217A117A000F0EC
:1003900061F84FF4FA73002213A118A000F05AF884
:1003A0004FF4FA73002210A117A000F053F800BF19
:1003B00019A11CA0FFF766FF0028F9D000BF4FF479
:1003C000FA73002208A119A000F044F80028F6D121
:1003D00010BD0000000801407265616479000000F2
:1003E00041542B52535400004F4B000041542B43B7
:1003F00049504D4F44453D300000000041542B43CF
:1004000049504D55583D310041542B4349505345B7
:10041000525645523D30000031323334353637388C
:10042000390000004368656E5975000041542B4344
:10043000495053544152543D302C22544350222CA5
:10044000223137322E32302E31302E33222C3830BA
:10045000303000002DE9F04106460C4615461F4697
:100460002548B0F800046FF30E002349A1F80004FA
:10047000324622A1234801F024F81CB915B9012005
:10048000BDE8F081B8B201F0B7F900201A49B1F81F
:100490000014C1F30E01184A505411461AA001F07D
:1004A00095F8B4B1ADB121461348FFF75DFE08B130
:1004B000012000E0002040B929460F48FFF754FE14
:1004C00008B1012000E0002008B10120D8E7002099
:1004D000D6E744B121460848FFF746FE08B101209F
:1004E000CEE70020CCE729460348FFF73DFE08B1E0
:1004F0000120C5E70020C3E7FC00002025730D0A9A
:100500000000000000440040257300002DE9F04188
:10051000024600250026002000230024002791F831
:1005200003C00CF00F0591F803C00CF0100CBCF1E7
:10053000000F03D091F802C04CEA050591F800C005
:10054000BCF1000F31D0146800202BE04FF0010CFB
:100550000CFA00F3B1F800C00CEA03069E4220D169
:1005600083004FF00F0C0CFA03F7BC4305FA03FCB1
:100570004CEA040491F803C0BCF1280F06D14FF0F7
:10058000010C0CFA00FCC2F814C00AE091F803C098
:10059000BCF1480F05D14FF0010C0CFA00FCC2F879
:1005A00010C0401C0828D1D31460B1F800C0BCF1C1
:1005B000FF0F34DD546800202EE000F1080C4FF0EE
:1005C000010808FA0CF3B1F800C00CEA03069E42D9
:1005D00021D183004FF00F0C0CFA03F7BC4305FA4E
:1005E00003FC4CEA040491F803C0BCF1280F05D1C8
:1005F00000F1080C08FA0CF8C2F8148091F803C056
:10060000BCF1480F07D100F1080C4FF0010808FABF
:100610000CF8C2F81080401C0828CED35460BDE806
:10062000F081416170470161704700BFFEE7000043
:10063000F0B58DB00746002506E03848405D3A2801
:1006400000D105E0681CC5B2354800788542F4DB6E
:1006500000BF3249681C085C41281AD1A81C085CFC
:10066000542816D1E81C085C5F2805D1084640795B
:1006700030382C4908700AE028482844461C4FF4BA
:10068000FA73002228A13046FFF7E4FE00BF0DB048
:10069000F0BD6C1C06E02148015D601B401E0DF89A
:1006A0000010641C1D48005D0028F4D10021601B6F
:1006B000401E0DF800109DF800101CA000F086FFF1
:1006C0009DF80000C0F592749DF80100312803D117
:1006D000A1B2800700F0DDFB9DF80100322803D1B4
:1006E000A1B2400700F0D7FB9DF80100332803D1E9
:1006F000A1B20F4800F0CDFB9DF80100342803D1D2
:10070000A1B20B4800F0C7FB9DF80100352803D1CA
:10071000A1B2074800F0C1FB00BFB8E734000020D9
:100720000D0000200C0000204F4B0000256400004D
:100730000004004000BFFEE77047000070B50021D4
:1007400000230F22C47804B3154C246804F4E06439
:10075000C4F5E064210AC1F10403CA40447804FAF4
:1007600003F184781440214309010E4C0678A15509
:10077000047804F01F050124AC4005786D11AD002C
:1007800005F1E025C5F8004109E0047804F01F05F3
:100790000124AC40044D0678761145F8264070BD22
:1007A0000CED00E000E400E080E100E002490143DC
:1007B000024A1160704700000000FA050CED00E0ED
:1007C0007047000029B1064AD2690243044BDA613E
:1007D00004E0034AD2698243014BDA6170470000AA
:1007E0000010024029B1064A12690243044B1A6103
:1007F00004E0034A12698243014B1A61704700000A
:100800000010024029B1064A92690243044B9A61E2
:1008100004E0034A92698243014B9A6170470000E9
:100820000010024029B1064AD2680243044BDA6044
:1008300004E0034AD2688243014BDA60704700004B
:100840000010024030B500210022002400232D4D6D
:100850006D6805F00C0121B1042905D0082923D1C8
:1008600005E0294D056022E0274D05601FE0254D7C
:100870006D6805F47012234D6D6805F4803402250F
:1008800005EB92421CB9214D554305600BE01D4D0F
:100890006D6805F400351DB11C4D5543056002E03F
:1008A000194D5543056002E0174D056000BF00BFBC
:1008B000144D6D6805F0F0010909154D6B5C056874
:1008C000DD4045600F4D6D6805F4E061090A104D8B
:1008D0006B5C4568DD4085600A4D6D6805F46051CC
:1008E000C90A0B4D6B5C4568DD40C560054D6D6800
:1008F00005F44041890B074D6B5CC568B5FBF3F50A
:10090000056130BD0010024000127A0000093D0070
:100910001000002020000020704710B500F002F801
:1009200010BD00000CB50020019000903348006815
:1009300040F480303149086000BF3048006800F45E
:10094000003000900198401C0190009818B901985F
:10095000B0F5A06FF1D12948006800F4003010B163
:100960000120009001E0002000900098012843D170
:100970002348006840F010002149086008460068DC
:1009800020F0030008600846006840F0020008609C
:100990001A48406819494860084640684860084657
:1009A000406840F4806048600846406820F47C104D
:1009B00048600846406840F4E8104860084600680F
:1009C00040F08070086000BF0C48006800F00070C4
:1009D0000028F9D00948406820F003000749486022
:1009E0000846406840F00200486000BF0348406885
:1009F00000F00C000828F9D10CBD000000100240E6
:100A000000200240042808D14FF0E021096941F09C
:100A100004014FF0E022116107E04FF0E021096985
:100A200021F004014FF0E02211617047704700008F
:100A300010B504466FF00400FFF7E4FFE11704EB84
:100A40005171C1F3C701074A11701046007800EBDD
:100A50004001C1EBC0104FF6FF7101EAC00002492E
:100A6000088010BD280000202A00002010B513487F
:100A7000006840F0010011490860084640681049CC
:100A800008400E494860084600680E4908400B4976
:100A900008600846006820F4802008600846406826
:100AA00020F4FE0048604FF41F008860FFF735FF18
:100AB0004FF000600449086010BD000000100240C3
:100AC0000000FFF8FFFFF6FE08ED00E030B589B04A
:100AD00005460C4601210420FFF794FE012108463B
:100AE000FFF770FE01210846FFF78CFE0F20ADF8DE
:100AF000040003208DF8060018208DF8070001A9D6
:100B00001A48FFF703FDADF81C50ADF8184000205F
:100B1000ADF81E00ADF81A0006A94FF0804000F0B5
:100B2000BFF96020ADF808000220ADF810000120E8
:100B3000ADF80A0002A9800700F09CF802A94FF066
:100B4000804000F0EDF80821C80600F0DFF8082129
:100B5000C80600F037F90121880700F072F801217A
:100B6000880700F07AF809B030BD000000080140A5
:100B700030B589B005460C4601210C20FFF742FE36
:100B800001210220FFF71EFE01210846FFF73AFE71
:100B9000C020ADF8040003208DF8060018208DF861
:100BA000070001A92348FFF7B1FC0120ADF80400BC
:100BB00003208DF8060018208DF8070001A91E48B3
:100BC000FFF7A4FCADF81C50ADF818400020ADF8BC
:100BD0001E00ADF81A0006A9184800F061F960205F
:100BE000ADF808000220ADF810000120ADF80A00B1
:100BF00002A9124800F03EF802A9104800F090F84F
:100C000002A90E4800F0ECF808210C4800F07EF82C
:100C100008210A4800F0D6F80821084800F030F909
:100C20000121064800F00DF80121044800F015F8F4
:100C300009B030BD00080140000C01400004004034
:100C4000704721B1028842F08002028004E00288ED
:100C50004FF67F731A400280704721B1028842F03C
:100C60000102028004E002884FF6FE731A400280FF
:100C70007047000070B5002400220023058C4FF659
:100C8000FE7635400584028C8388048B4FF68F7581
:100C90002C40B51E2C400D882C43751E2A400D8912
:100CA0002A434D882A43144DA8420BD0134DA84225
:100CB00008D0134DA84205D0124DA84202D0124DC3
:100CC000A84213D14FF6F7752A404D892A434FF6B3
:100CD000FB752A408D882A434FF6FF652B404FF65F
:100CE000FF552B408D892B43CD892B438380048373
:100CF000CD888586028470BD002C014000340140FF
:100D00000040014000440140004801400A460021E3
:100D1000018B4FF6F77319401143018370470000B0
:100D200070B5002400220023058C4FF6EF76354085
:100D30000584028C8388048B48F6FF752C404FF69F
:100D4000FF452C400D884FF6FF7606EA05252C431B
:100D50004FF6DF752A400D8906EA05152A434D88AE
:100D600006EA05152A43154DA84202D0144DA842A3
:100D70001DD14FF67F752A404D894FF6FF7606EA62
:100D800005152A434FF6BF752A408D8806EA0515DA
:100D90002A434FF6FF352B404FF2FF752B408D89CC
:100DA00006EA85052B43CD8906EA85052B4383801A
:100DB0000483CD880587028470BD0000002C0140AB
:100DC000003401400A460021018B4FF2FF731940A5
:100DD0004FF6FF7303EA02231943018370470000B3
:100DE00070B5002400220023058C4FF6FF663540C5
:100DF0000584028C8388848B4FF68F752C404FF6C8
:100E0000FC752C400D882C434FF6FF552A400D8968
:100E10004FF6FF7606EA05252A434D8806EA0525A2
:100E20002A43154DA84202D0144DA8421DD14FF2BD
:100E3000FF752A404D894FF6FF7606EA05252A43BD
:100E40004FF6FF352A408D8806EA05252A434EF6DF
:100E5000FF752B404DF6FF752B408D8906EA051571
:100E60002B43CD8906EA05152B4383808483CD88E7
:100E70008587028470BD0000002C014000340140D1
:100E80000A460021818B4FF6F77319401143818385
:100E900070478186704701877047818770470000DF
:100EA000002202881D4B98420ED01D4B98420BD059
:100EB000B0F1804F08D01B4B984205D01A4B984296
:100EC00002D01A4B984204D14FF68F731A404B88C8
:100ED0001A43174B984207D0164B984204D04FF64E
:100EE000FF431A40CB881A4302808B8883850B8886
:100EF00003850A4B98420BD0094B984208D00E4B01
:100F0000984205D00D4B984202D00D4B984201D12A
:100F10000B7A03860123838270470000002C014076
:100F2000003401400004004000080040000C004074
:100F30000010004000140040004001400044014007
:100F40000048014010B586B00446012144F2040077
:100F5000FFF758FC234800F095F94FF40070ADF806
:100F6000140003208DF8160018208DF8170005A92D
:100F70001D48FFF7CBFA4FF48060ADF81400042051
:100F80008DF8170005A91848FFF7C0FA25208DF83D
:100F9000000003208DF801008DF8020001208DF87B
:100FA00003006846FFF7CAFB01940020ADF8080073
:100FB000ADF80A00ADF80C00ADF810000C20ADF84B
:100FC0000E0001A9074800F007FA012240F225515E
:100FD000044800F0DCF90121024800F046F906B0AF
:100FE00010BD0000003801400008014010B500208D
:100FF0002F49086040F225512E4800F09EF918B3A1
:101000002C4800F055FAC4B22B4801780078401CF7
:10101000294A1070294844542948B0F80004C0F304
:101020000E0040F2FF3188420EDA2549B1F8001473
:10103000C1F30E00411C224AB2F8002461F30E02F3
:101040001F49A1F800240C5440F22441194800F033
:1010500074F901281FD11A48B0F8000420F40040A8
:1010600000F500401649A1F80004124800F020FAEB
:10107000C4B2114801780078401C0F4A10700F4824
:10108000445410A10E48FFF76FF808B1012000E0AA
:1010900000200F490870094800782B2803D0002051
:1010A0000549087002E001200A49087010BD0000DF
:1010B00008000020004400400D0000203400002003
:1010C000FC000020434C4F5345440D0A0000000033
:1010D0002C0000200400002010B586B00446012139
:1010E0004804FFF76FFB01210420FFF78BFB04206E
:1010F000ADF8140003208DF8160018208DF81700A5
:1011000005A91C48FFF702FA0820ADF814000420D6
:101110008DF8170005A91748FFF7F8F926208DF874
:10112000000002208DF801008DF8020001208DF8EA
:1011300003006846FFF702FB01940020ADF80800A9
:10114000ADF80A00ADF80C00ADF810000C20ADF8B9
:101150000E0001A9084800F03FF9012240F2255194
:10116000054800F014F90121034800F07EF806B0AC
:1011700010BD0000000801400044004010B540F2DE
:1011800025510A4800F0D9F850B1084800F090F90C
:10119000C4B2204600F04AFC2146044800F08DF914
:1011A0004021024800F058F810BD000000480040FF
:1011B00010B586B0044601218804FFF703FB012126
:1011C0000820FFF71FFB4FF48060ADF814000320E8
:1011D0008DF8160018208DF8170005A91C48FFF798
:1011E00095F94FF40060ADF8140004208DF8170055
:1011F00005A91748FFF78AF927208DF8000000207D
:101200008DF801008DF8020001208DF8030068467A
:10121000FFF794FA01940020ADF80800ADF80A0039
:10122000ADF80C00ADF810000C20ADF80E0001A9CF
:10123000084800F0D1F8012240F22551054800F09D
:10124000A6F80121034800F010F806B010BD000018
:10125000000C01400048004001F40072B2F5007F2C
:1012600000D100BFCA430280704721B1828942F495
:101270000052828104E082894DF6FF731A40828118
:101280007047000010B504462048844209D101216E
:101290008803FFF7C7FA00214FF48040FFF7C2FA36
:1012A00032E01B48844209D101214804FFF79AFA31
:1012B00000214FF40030FFF795FA25E015488442ED
:1012C00009D101218804FFF78DFA00214FF4802015
:1012D000FFF788FA18E01048844209D10121C804B8
:1012E000FFF780FA00214FF40020FFF77BFA0BE0B4
:1012F0000A48844208D101210805FFF773FA00214A
:101300004FF48010FFF76EFA10BD00000038014066
:101310000044004000480040004C004000500040A5
:1013200002460020B1F5007F00D100BF13880B40BA
:101330000BB1012000E00020704770B50246002488
:1013400000230025002040F66A16B14200D100BFFC
:10135000C1F3421501F01F03012606FA03F3012D24
:1013600002D19689334006E0022D02D1168A33401D
:1013700001E0968A33400C12012606FA04F416881E
:10138000344013B10CB1012000E0002070BDF0B575
:101390000346002400260025002040F66A17B942C3
:1013A00000D100BF1846C1F3421401F01F06012707
:1013B00007FA06F5012C01D10C3004E0022C01D112
:1013C000103000E014301AB107682F43076002E0C4
:1013D0000768AF430760F0BD2DE9F04786B00546CA
:1013E0000E460024A24600BFA1460027B08900B1E6
:1013F00000BF2F462C8A4CF6FF700440F08804434F
:101400002C82AC894EF6F3100440B0883189084331
:10141000718908430443AC81AC8A4FF6FF40044015
:10142000B0890443AC8201A8FFF70CFA1F48874239
:1014300002D1DDF810A001E0DDF80CA0A88900F4CD
:10144000004040B10AEBCA0000EB0A1031684900C5
:10145000B0FBF1F807E00AEBCA0000EB0A103168B4
:101460008900B0FBF1F86420B8FBF0F0040120091A
:10147000642101FB1089A88900F4004040B13220AA
:1014800000EBC900B0FBF1F000F00700044308E0F6
:10149000322000EB09106421B0FBF1F000F00F00E6
:1014A00004432C8106B0BDE8F087000000380140FD
:1014B00001468888C0F308007047C1F308028280A3
:1014C00070470FB470B586B006460CA8019073E063
:1014D0000B9800785C281CD10B98401C0B9000786E
:1014E0006E2809D072280FD10D213046FFF7E5FF95
:1014F0000B98401C0B900BE00A213046FFF7DDFFF4
:101500000B98401C0B9003E00B98401C0B9000BF05
:101510004BE00B980078252840D10B98401C0B908D
:101520000078642818D0732833D1019810C801902E
:101530000BE021783046FFF7C0FF00BF8021304626
:10154000FFF7EEFE0028F9D0641C20780028F0D1C7
:101550000B98401C0B9020E0019820C801900A22B3
:1015600002A9284600F080F902AC0BE02178304651
:10157000FFF7A3FF00BF80213046FFF7D1FE002810
:10158000F9D0641C20780028F0D10B98401C0B90F7
:1015900003E00B98401C0B9000BF06E00B9810F87E
:1015A000011B0B903046FFF788FF00BF80213046BB
:1015B000FFF7B6FE0028F9D00B980078002887D1F5
:1015C00006B070BC5DF814FB00BFFEE70FB4054B1E
:1015D00010B503A9044A029800F02CF810BC5DF87D
:1015E00014FB000045180008300000200FB4084B21
:1015F00010B504A902AA039800F01CF8044602A939
:10160000002000F0F3F8204610BC5DF814FB000049
:10161000ED17000802E008C8121F08C1002AFAD11D
:1016200070477047002001E001C1121F002AFBD162
:10163000704700002DE9FF4F8BB09A460F460546D4
:10164000002606E025280BD052460D9990476D1CC8
:10165000761C28780028F5D10FB03046BDE8F08F11
:101660000024A0460122604900E0044315F8013F30
:10167000203B02FA03F00842F7D128782E2817D130
:1016800015F8010F44F004042A280ED06FF02F0241
:101690002878A0F1300109290AD808EB880102EB6B
:1016A000410100EB01086D1CF2E757F8048B6D1C3B
:1016B000287869283ED006DC0028CDD063280BD0DE
:1016C000642804D136E0732810D075284BD05246D8
:1016D0000D999047761C85E017F8040B8DF80000F3
:1016E00000208DF80100E946012003E057F8049B33
:1016F0004FF0FF3061074FF0000401D40AE0641C92
:1017000044450DDA8442FADB19F804100029F6D1B9
:1017100006E0641C8442FCDB19F804100029F8D1AF
:10172000264404E019F8010B52460D999047641EB7
:10173000F8D257E001CF4FF00A0B002802DA4042FE
:101740002D2102E0210504D52B218DF82410012143
:1017500003E0E10705D02021F7E70DF1200908910A
:101760000CE00021F9E701CF4FF00A0BF9E75946E9
:10177000FEF70CFD01F1300209F8012D0028F6D129
:10178000ADEB090000F1200B600701D44FF0010818
:10179000D84502DDA8EB0B0000E0002080460024C5
:1017A00006E009A85246005D0D999047641C761C1E
:1017B00008988442F5DB04E0302052460D999047AA
:1017C000761CB8F10001A8F10108F5DC05E019F874
:1017D000010B52460D999047761CBBF10001ABF10D
:1017E000010BF4DC6D1C34E7092801000A68531C66
:1017F0000B601070704700000146114A12884A437E
:101800004FF0E0235A6100229A611A46126942F0B1
:1018100001021A6100BF4FF0E022106900F00102DE
:101820001AB100F48032002AF5D04FF0E02212699C
:1018300022F001024FF0E0231A6100229A61704702
:101840002A00002070B504460D46E1B20548FFF7B6
:1018500034FE00BF80210348FFF762FD0028F9D065
:10186000204670BD00380140F0B503460D461646CF
:10187000002729460A2E03D0002008702846F0BD14
:1018800033B9302001F8010B002008702846F6E734
:10189000002B03DA2D2001F8010B5B4242F210729B
:1018A0000DE093FBF2F404B937B104F1300001F814
:1018B000010B04FB123301270A2092FBF0F2002AED
:1018C000EFDC002008702846D9E700004820FFF729
:1018D000AFF84FF4A060FEF769FF4FF4E130FFF777
:1018E00067FC4FF4E130FFF72DFB41F61F41C720A5
:1018F000FFF7ECF841F61F41C720FFF739F94FF425
:10190000E130FEF793FCFEF72BFD4FF4FA73002253
:1019100011462EA0FEF79EFD56E02F4800780128C4
:101920003CD12E4801680068401C2C4A106044F6E7
:101930002060814232D12A484078492811D0284875
:10194000807850280DD02648C078442809D000203F
:1019500023490870234908701F4908701146086020
:101960001CE02048007880B100201D491D4A1278F3
:1019700088541DA0FFF72AFE1A48027818491BA0B8
:10198000FFF724FE1648FEF753FE002014490870A6
:101990001449087010490870104908601648016819
:1019A0000068401C144A1060144881420CD90A484F
:1019B000007830B94FF4FA73002211A111A0FEF79C
:1019C00049FD00200C490860A7E7000041542B4363
:1019D0004946535200000000040000200800002087
:1019E000340000200D00002021212100257320203B
:1019F0002025640D0A000000000000208096980059
:101A00004F4B000041542B43495053544152543DD5
:101A1000302C22544350222C223137322E32302E99
:101A200031302E33222C38303030000010B50446CF
:101A3000FE2C01D03F2C06D12448007818B9012093
:101A40002249087010BD21480078012805D120489E
:101A5000047002201D490870F4E71C480078022831
:101A600032D1FF2C01D03F2C1BD1194800781949E5
:101A70000978884207D00020164908701449087078
:101A800012490870DEE700201349124A1278885480
:101A9000104908700D4908700F4910A0FFF796FD16
:101AA000D0E70C480078642805DB0020094908705D
:101AB00006490870C6E708480649097844540548AD
:101AC0000078401C0349087000BFBBE724000020D9
:101AD000250000202600002098000020257300002B
:101AE000001B00080000002034000000141600084D
:101AF000341B000834000020CC0800002416000825
:101B000000000000000000000000000000000001D4
:101B10000000000001020304010203040607080993
:101B200002040608000000000000000000000000A1
:041B300000000000B1
:0400000508000131BD
:00000001FF
