:020000040800F2
:1000000018380020A51100087506000877060008BA
:10001000790600087B0600087D0600080000000045
:100020000000000000000000000000007F06000843
:100030008106000800000000E7880008690E00083B
:10004000BF110008BF110008BF110008BF11000850
:10005000BF110008BF110008BF110008BF11000840
:10006000BF110008BF110008BF110008BF11000830
:10007000BF110008BF110008BF110008BF11000820
:10008000BF110008BF110008BF110008BF11000810
:10009000BF110008BF110008BF110008BF11000800
:1000A000BF110008BF110008BF110008BF110008F0
:1000B000BF110008D70C0008BF110008BF110008CD
:1000C000BF110008BF110008BF110008BF110008D0
:1000D000BF1100080D1000085D0A00084B11000850
:1000E000BF110008BF110008BF110008BF110008B0
:1000F000BF110008BF110008BF110008BF110008A0
:10010000BF110008BF110008BF110008BF1100088F
:10011000BF110008BF110008BF110008BF1100087F
:10012000BF110008BF110008BF110008BF1100086F
:1001300000F002F800F065F80AA090E8000C824494
:100140008344AAF10107DA4501D100F05AF8AFF271
:10015000090EBAE80F0013F0010F18BFFB1A43F0A5
:1001600001031847E0910000009200000A444FF09C
:10017000000C10F8013B13F0070408BF10F8014B06
:100180001D1108BF10F8015B641E05D010F8016B4B
:10019000641E01F8016BF9D113F0080F1EBF10F8AF
:1001A000014BAD1C0C1B09D16D1E58BF01F801CBD2
:1001B000FAD505E014F8016B01F8016B6D1EF9D555
:1001C0009142D6D37047000000230024002500266A
:1001D000103A28BF78C1FBD8520728BF30C148BFAA
:1001E0000B607047642908F02182632908F00D83B1
:1001F000732908F01283002070471FB51FBD10B58A
:1002000010BD08F025FB1146FFF7F7FF00F09EF93F
:1002100008F043FB03B4FFF7F2FF03BC00F09EFEBF
:100220000EB5F84C02AD0826D4F8A00158B1002054
:10023000C4F8A0010023CDE9006501221946184643
:1002400007F0D3FBF0E70120F2E70EB500252C46BE
:10025000DFF8B4A3DFF8B4B3DFF8B49302F0CCFA5C
:1002600099F80010491C89F8001002F0C9FADBF86F
:10027000000059468046504502DA4868504502DB86
:100280000124254600E0D4B1DBF8040020F0004052
:1002900008F0BEFD06460F4628F0004008F0B8FD05
:1002A00032463B4608F050FB4FF03332D94B08F052
:1002B0008FFC04D2641C2146D7A008F039F965B13F
:1002C0006D1CB5F5C87F08D1B4F5967F03DDD44920
:1002D0000020C1F8880100252C4602F08DFA99F81B
:1002E0000010491E11F0FF0189F8001007D1CD4917
:1002F000098821B102F084FA03F074FF01E002F0F2
:100300007FFA02A908200022CDE900012823114626
:10031000104607F06AFBA1E70EB5C34EBC4CC14DB9
:1003200002AF4FF008088021304601F060F8012844
:1003300020D10A2000F0E9FD8021304601F057F875
:10034000012817D102F058FA2178491C217002F0D7
:1003500057FA02F051FA2178491E11F0FF0121707D
:1003600006D1298821B102F04BFA03F03BFF01E0EE
:1003700002F046FA4021304601F039F8012820D138
:100380000A2000F0C2FD4021304601F030F801287B
:1003900017D102F031FA2178491C217002F030FAAD
:1003A00002F02AFA2178491E11F0FF01217006D1CE
:1003B000298821B102F024FA03F014FF01E002F0D1
:1003C0001FFA2021304601F012F8F8B90A2000F097
:1003D0009CFD2021304601F00AF8B8B902F00CFA71
:1003E0002178491C217002F00BFA02F005FA2178FD
:1003F000491E11F0FF01217006D1298821B102F0B8
:10040000FFF903F0EFFE01E002F0FAF910213046A7
:1004100000F0EDFFF8B90A2000F077FD102130461A
:1004200000F0E5FFB8B902F0E7F92178491C217026
:1004300002F0E6F902F0E0F92178491E11F0FF011F
:10044000217006D1298821B102F0DAF903F0CAFE41
:1004500001E002F0D5F90022CDE9008764231146BE
:10046000104607F0C2FA5EE72DE9F0478AB002F0C5
:10047000ECF809A805F077FF012109AA084603F066
:100480003CFB02F0B9F9624D2978491C297002F051
:10049000B7F900240327CDE9064709AE4FF00C0A4F
:1004A000624A0896059404208DE805044FF0800800
:1004B0002346AFF29B125D48CDE903845CA1C438AA
:1004C00006F0E7F9CDE90647192105944FF0050933
:1004D0005A4A0896CDF80090CDE901214FF480707A
:1004E0000023AFF29922CDE90304544854A1C43843
:1004F00006F0CFF9CDF808A0CDE90647544A059497
:10050000CDE9009208960023AFF2EB225048CDE9E6
:10051000038450A1C43806F0BCF902F06DF92978C3
:10052000491E11F0FF01297007D13E49098821B108
:1005300002F066F903F056FE01E002F061F909A944
:10054000002006F087FA0AB0BDE8F08730B58BB01E
:1005500000F098FC4FF4A06000F044FE4FF4E1344A
:10056000204600F005FD204600F0FCF9204600F092
:100570007CFD00F0ADF900F031F900F047FC40F2ED
:10058000CF214FF4FA6000F079FB00F0CFF909A811
:1005900003F049F902F030F91D4C2178491C217013
:1005A00002F02EF9002006AB09AA0321059083E88A
:1005B000070080220C23CDE902322A4D0490034625
:1005C000AFF25B12CDE9001527A1A5F1C40006F03A
:1005D00060F902F011F92178491E11F0FF01217034
:1005E00007D11049098821B102F00AF903F0FAFD98
:1005F00001E002F005F909A803F03BFB0BB0002075
:1006000030BD0000000021429A99993F3C10002023
:10061000CC0000203333F33F25640D0A00000000B6
:100620000080224290000020000C0140B80400200D
:1006300053656E736F72207461736B007C070020CA
:100640004D505536303530207461736B000000001A
:10065000400C00204C6F636174696F6E207461738D
:100660006B000000F40100207374617274207461E7
:10067000736B00007047FEE7FEE7FEE7FEE770479A
:10068000704700000CB500224C48009201920168AE
:1006900041F4803101604FF4A063016801F400313E
:1006A00001910099491C0091019911B90099994251
:1006B000F3D10168890333D50121019140490A68CA
:1006C00042F010020A600A6822F003020A600A6817
:1006D00042F002020A60416841604168416041683D
:1006E00041F480614160416821F47C1141604168BE
:1006F00041F4E8114160016841F0807101600168D6
:100700008901FCD5416821F003014160416841F055
:10071000020141604168C1F381010229FAD10CBD97
:1007200001920CBD254810B5016841F0010101603E
:100730004168244A114041600168234A1140016028
:10074000016821F480210160416821F4FE014160CB
:100750004FF41F018160FFF795FF1C494FF00060C7
:10076000086010BD154A10B55068194B10F00C0107
:10077000184803D0042901D0082901D0036012E0F1
:100780005168536801F470114FF0020413F4803F74
:1007900004EB914102D053689B0301D50E4B00E05E
:1007A0000B4B5943016051680A4AC1F30311121DF2
:1007B000515C0268CA40026010BD00000010024097
:1007C000002002400000FFF8FFFFF6FE08ED00E009
:1007D00000127A000000002000093D0038B5012118
:1007E000142001F02AF90120ADF800002820354D31
:1007F0008DF803006946284600F0A3FD4FF4004140
:10080000ADF8001048248DF803406946284600F0F2
:1008100098FD2020ADF800008DF8034069462A4875
:1008200000F08FFD38BD2DE9F041284C264F254DB5
:1008300001264FF4004808B1267001E0207878B115
:100840002021384600F0D3FD88B14146284600F00B
:10085000CEFD60B10121284600F0C9FD012806D077
:100860002021384600F0C3FD01281DD028E00A20D1
:1008700000F04BFB002020702021384600F0B7FD2F
:1008800058B14146284600F0B2FD48B10121284642
:1008900000F0ADFD012805D012E00120BDE8F08197
:1008A0000220FBE70320F9E74146284600F09FFDC0
:1008B000012805D10121284600F099FD00B92670D4
:1008C0000020EBE700080140001001401400002068
:1008D000F8B50121242001F0B0F84FF48076ADF88E
:1008E000006010250F4F8DF8035003248DF802404F
:1008F0006946384600F025FD3146384600F08BFD4C
:100900000420ADF800008DF803508DF80240064C2D
:100910006946204600F015FD0421204600F07BFDCD
:10092000F8BD0000000801400014014038B5012165
:10093000082001F082F84FF48074ADF800401020D8
:100940008DF803000320064D8DF802006946284605
:1009500000F0F7FC2146284600F05FFD38BD00009E
:10096000000C0140F0B5074687B00121BB4801F0FB
:100970006DF80425ADF8105018208DF813000320F1
:10098000B74E8DF8120004A9304600F0DAFC0824B6
:10099000ADF810408DF8135004A9304600F0D1FC9A
:1009A0000020ADF80400ADF80600ADF80800ADF881
:1009B0000C000C20AB4DADF80A00009769462846A4
:1009C00000F0CAFD002240F22771284600F041FEE7
:1009D000012240F22551284600F03BFE40212846E6
:1009E00000F0EBFE0121284600F029FE26208DF8BC
:1009F000140001208DF815008DF816408DF81700B1
:100A000005A800F0F4FB07B0F0BD984910B5964A70
:100A10008B78D0545B1CD8B2887014780023552C86
:100A20001AD10B2819D35078512804D0522808D055
:100A3000532811D10BE052F8020F486050688860CB
:100A40000AE052F8020FC8605068086104E052F8EA
:100A5000020F4861506888618B7010BD70B5814D80
:100A600040F227763146284600F0AAFEB8B17F4C06
:100A70007D482278FA30815C521C2270284600F0B2
:100A800034FE3146284600F0BAFE2078617888426C
:100A900016D100223146284600F0DBFD10E040F27E
:100AA00025542146284600F08BFE48B16D48001DB4
:100AB0000088C0B2FFF7A9FF2146284600F09FFE3C
:100AC0002846BDE870404FF4587100F098BE674A60
:100AD000654B5178FA335854491C5170012240F249
:100AE0002771604800F0B5BD10B5044605E00D283B
:100AF00000D00A28FFF7EBFF641C20780028F6D10D
:100B000010BD2DE9F041594D2D1DB5F9000008F03B
:100B1000B1F96FF00E06314608F0C2FA042108F070
:100B2000BFFA534C2060B5F9020008F0A3F9314632
:100B300008F0B6FA042108F0B3FA6060B5F90400D1
:100B400008F098F9314608F0ABFA042108F0A8FA49
:100B50000835A060B5F9000008F08CF9314608F0BE
:100B60009FFA444F394608F09DF9E060B5F902005C
:100B700008F080F9314608F093FA394608F092F906
:100B80002061B5F9040008F075F9314608F088FADB
:100B9000394608F087F908356061B5F9000008F0BA
:100BA00069F9314608F07CFA334F394608F07AF992
:100BB000A061B5F9020008F05DF9314608F070FA5D
:100BC000394608F06FF9E061B5F9040008F052F910
:100BD000314608F065FA394608F064F92062BDE84C
:100BE000F08110B51F4C0146204600F07EFD4021EB
:100BF000204600F0DBFD0128F9D110BD70B5054697
:100C00000024184E0AE0304600F06FFD40213046C7
:100C100000F0CCFD0128F9D1641CE4B2295D002963
:100C2000F1D170BD2DE9F04115460E46074600246E
:100C30000BE04021384600F0B9FD0028F9D0315DC5
:100C4000384600F052FD641CE4B2AC42F1D34021BE
:100C5000384600F0ABFD0028F9D0C0E704000200E0
:100C60000008014000440040400E00201600002013
:100C70003C1000200000FA44000034437FB50D46CC
:100C800004460121022000F0E1FEADF80440ADF879
:100C9000005000241A4DADF80640ADF802406946F8
:100CA000284600F0B1FF01221146284601F069FAFA
:100CB0001D218DF80C108DF80D4003208DF80E00CD
:100CC00001208DF80F0003A800F091FA01212846B9
:100CD00001F042FA7FBD10B5094C0121204601F018
:100CE00064FC00280BD002F02FFEFFF70AFF012161
:100CF000204601F066FCBDE8104002F030BE10BD99
:100D00000004004010B53648007803280BD135A107
:100D1000364807F0C5FC002805D1BDE8104034A1D5
:100D2000324807F0BDBC10BD70B52D4CFE282178AF
:100D300001D03F2800D179B101290FD002290AD171
:100D400000252A4AFF280DD03F280BD0A17864291E
:100D500018D3A570257070BD012001E060700220DD
:100D6000207070BDA078637841000839994202D0A4
:100D7000A5706570EEE71554A57003202070FFF78D
:100D8000C1FFE7E75054491CA17070BD704770B5B2
:100D9000054686B00E461446104607F093FC031D28
:100DA000FF20CDE9044091209021CDE900100F48AB
:100DB000CDE90256FE2210A1643007F0C5FB0B48B6
:100DC000643007F07FFC06B0C1B2BDE87040074850
:100DD000643000F09DB9024606213A20D7E70000B2
:100DE0003200002041415245000000006010002008
:100DF00042424C4F000000002563256325632563B4
:100E000025632563257325630000000038B50121A3
:100E1000082000F012FEC020ADF800002820094C88
:100E20008DF803006946204600F08BFA3021ADF8BA
:100E3000001048218DF803106946204600F081FA21
:100E400038BD0000000C014008B5684602F0EEFD18
:100E500008BD08B5684602F022FE08BD08B56A461E
:100E6000082106F073FD08BD354810B5007801284B
:100E700007D102F069FD06F0C6FEBDE8104002F0A1
:100E80006EBD10BD10B56FF0040000F0F0F92D48F4
:100E90002E4B2F4A01682C482E4CB1FBF0F01870F5
:100EA0001168B4FBF1F1414310684FF47A72B2FB60
:100EB000F0F058804FF0E020026942F00202026137
:100EC0004161016941F00101016110BDF8B54FF0C8
:100ED000E02700247E691D49097800FB01F568467A
:100EE00002F0A4FDB969B8698842FCD002D2A1EB36
:100EF000000102E0A6EB000211440C440146AC42A2
:100F0000F1D3684602F0CBFDF8BD70B504460C483D
:100F1000007878B11048007860B90C4D6888844238
:100F200003D3B4FBF0F0FFF799FF6888B4FBF0F14E
:100F300000FB11444FF47A706043BDE87040C5E790
:100F4000850000200000002000127A0036000020FA
:100F50001093000840420F008400002070478B4926
:100F60000A885206FCD5894AC1B2121D1180704709
:100F7000F0B5064687B0012144F2040000F05DFDA3
:100F8000824D284600F0B8FA6815ADF81000032429
:100F90008DF8124018207E4F8DF8130004A93846B2
:100FA00000F0CFF92815ADF8100004208DF81300DB
:100FB00004A9384600F0C5F925208DF814008DF8F5
:100FC00015408DF8164001208DF8170005A800F097
:100FD0000EF90021ADF80810ADF804100C20ADF8A2
:100FE0000610ADF80C10ADF80A00009669462846C8
:100FF00000F0B2FA012240F22551284600F029FB08
:101000000121284600F01BFB07B0F0BD70B502F0CF
:101010009BFC5E4C40F22551204600F0D1FBE0B134
:10102000204600F066FB5B4AC1B21088030414D46A
:1010300044044FF0000304D50A290DD140F40040C8
:1010400011E00D290DD0C0F30D04534D401C80B2AA
:1010500029551080C72800D91380BDE8704002F0E0
:101060007EBC40F480401080F7E770B5044686B03F
:101070000121082000F0E1FC0121880400F0E6FCD9
:101080004FF48060ADF8100003258DF81250182041
:10109000424E8DF8130004A9304600F052F9F114C5
:1010A000ADF8101004208DF8130004A9304600F0AC
:1010B00048F90020ADF804000094ADF80600ADF842
:1010C0000800ADF80C000C20354CADF80A0069465C
:1010D000204600F041FA0121204600F0B0FA4021FC
:1010E000204600F06AFB012240F22551204600F024
:1010F000B0FA27208DF8140001208DF815008DF826
:1011000016508DF8170005A800F071F806B070BDF4
:101110002DE9F0410E4607460024214D0BE08021C9
:10112000284600F043FB0028F9D0395D284600F03E
:10113000DCFA641CE4B2B442F1D38021284600F00A
:1011400035FB0028F9D0BDE8F08170B5144D40F2B0
:101150002551284600F034FB88B1284600F0C9FA32
:10116000C4B22046FFF7E0FD2146084C204600F0BF
:10117000BCFA8021204600F019FB0028F9D028464F
:10118000BDE87040402100F018BB0000003801406D
:10119000000801403A00002028110020000C014006
:1011A000004800400948804709480047FEE7FEE73D
:1011B000FEE7FEE7FEE7FEE7FEE7FEE7FEE7FEE707
:1011C00004480549054A064B7047000025070008FA
:1011D000310100081832002018380020183400208F
:1011E000183400202849084328490860704730B562
:1011F0000F23C27801780125F2B1244A126801F167
:10120000E02102F4E062C2F5E062120AC2F10404D5
:10121000D3404278A24084781C401443220181F8D4
:101220000024007800F01F018D404009800000F18B
:10123000E020C0F8005130BD01F01F008540480992
:10124000800000F1E020C0F8805130BD104A11400C
:1012500001430E48001F016070470C4A121D00290F
:10126000116801D0014300E08143116070474FF0E5
:10127000E0210428086903D020F0040008617047C9
:1012800040F00400FAE700000000FA050CED00E071
:1012900080FFFF1F8F4910B5884206D1012104202D
:1012A00000F0DDFB002104203BE08B49884206D1A1
:1012B0000121082000F0D3FB0021082031E08749FC
:1012C000884206D10121102000F0C9FB0021102026
:1012D00027E08349884206D10121202000F0BFFB8E
:1012E000002120201DE07F49884206D101214020B5
:1012F00000F0B5FB0021402013E07B49884206D175
:101300000121802000F0ABFB0021802009E077491B
:1013100088420AD184150121204600F0A0FB00215B
:101320002046BDE8104000F09ABB10BD10B5012169
:10133000084600F094FB0021BDE81040012000F0B9
:101340008EBBF0B5CC78002204F00F03E40601D583
:101350008C7823430C784FF00F0C14F0FF0F4FF0F4
:10136000010E1BD005680E880EFA02F42640A64234
:1013700010D196000CFA06F725EA070703FA06F5DE
:10138000CE783D43282E02D0482E02D002E04461A0
:1013900000E00461521C082AE5D305600A88FF2A90
:1013A0001CD94468002202F108060EFA06F50E88E0
:1013B0002E40AE420ED196000CFA06F7BC4303FA5B
:1013C00006F7CE783C43282E00D14561CE78482ED2
:1013D00000D10561521C082AE5D34460F0BD4FF6E8
:1013E000FF710180022181700421C17070470246A3
:1013F000002092680A4200D001207047806880B2C5
:10140000704702460020D2680A4200D0012070478F
:10141000C06880B2704701617047416170470AB18E
:101420000161704741617047C160704741F480328B
:101430008261816182618169806970472C4B10B53E
:101440001A684FF68074224042EA00100843186080
:1014500010BD2849C8617047F0B5254C002801DA55
:10146000E36900E06368450D2E0185B2C0F30157C2
:10147000B540C0F30342032F05D0C6020AD50326A8
:101480009640B34307E023F07062636823F0706313
:10149000636002E0AB4343F0706201B12A4300286D
:1014A00001DAE261F0BD6260F0BD10B58A0721F09B
:1014B00003040F49120F21440F238C6893409C436F
:1014C0008C608B68904003438B6010BD0949C1F864
:1014D000DC00704700080140000C01400010014092
:1014E0000014014000180140001C01400020014090
:1014F0000000014000002042C44910B588420AD1D2
:1015000001218C03204600F0AAFA2046BDE81040D5
:10151000002100F0A4BABE49884202D101214C0446
:1015200010E0BC49884202D101218C040AE0BA498A
:10153000884202D10121CC0404E0B84988420AD192
:1015400001210C05204600F093FA2046BDE810402A
:10155000002100F08DBA10BD30B50446008A85B078
:101560000D464CF6FF710840E98801432182A089AD
:101570004EF6F3110840A9882A8911436A8902436B
:101580001143A181A08A4FF6FF410840A989014378
:10159000A182684600F006FA9C48844201D1039873
:1015A00000E00298A189090400EBC00101EB0010E2
:1015B000296801D5490000E08900B0FBF1F0642200
:1015C000B0FBF2F109010B096FF018056B4300EB5A
:1015D0008300A3891D044FF0320306D503EBC0003E
:1015E000B0FBF2F000F0070005E003EB0010B0FBE9
:1015F000F2F000F00F000843208105B030BD4FF439
:101600001651016000218180C18001810C2242813C
:101610008181704710B5028A4FF2FF031A400B8890
:101620004C8823438C88C9880C432343134303828B
:1016300010BD0021018041808180C1807047002958
:10164000818902D041F4005101E021F400518181EF
:10165000704710B5C1F3421301F01F040121A140EE
:10166000012B07D0022B07D01430002A026805D0C6
:101670000A4304E00C30F8E71030F6E78A430260D2
:1016800010BD002A828A01D00A4300E08A43828288
:101690007047028A22F00F020282028A0A43028203
:1016A0007047828922F40062828182890A438281A2
:1016B00070470029818902D041F0020101E021F048
:1016C000020181817047028A22F020020282028A8E
:1016D0000A43028270470029018A02D041F4804106
:1016E00001E021F4804101827047C1F3080181804B
:1016F00070478088C0F308007047818941F001017C
:1017000081817047028BD2B20283028B42EA0121AF
:1017100001837047028B02F47F420283028B0A43EB
:10172000028370470029818A02D041F0200101E044
:1017300021F02001818270470029818A02D041F086
:10174000100101E021F01001818270470029818A97
:1017500002D041F0080101E021F0080181827047C8
:101760000029818902D041F4004101E0C1F30E015A
:10177000818170470029818A02D041F4006101E033
:1017800021F4006181827047828A22F00402828201
:10179000828A0A43828270470029818A02D041F0FE
:1017A000020101E021F0020181827047024600201F
:1017B00012880A4200D001207047C9430180704757
:1017C00070B501F01F0501260024C1F3421306FA8B
:1017D00005F2012B0FD0022B0FD0838A4FEA112183
:1017E0000088134206FA01F600EA060001D000B1B3
:1017F0000124204670BD8389F0E7038AEEE70A0AD8
:1018000001219140C9430180704700000038014028
:101810000044004000480040004C004000500040A0
:10182000A548016841F0010101604168A34A1140E7
:1018300041600168A24A11400160016821F48021E1
:101840000160416821F4FE0141604FF41F01816095
:10185000704799490A6822F480320A600A6822F4C3
:1018600080220A60B0F5803F07D0B0F5802F03D109
:10187000086840F4A02008607047086840F4803091
:10188000F9E70346002059098B4A01290AD00229A9
:101890000AD0516A03F01F02012393400B4200D08B
:1018A000012070471168F5E7116AF3E718B50020C9
:1018B0004FF4A06400903120FFF7E3FF0099491C2A
:1018C0000091A14201D00028F5D03120FFF7D9FFC7
:1018D000002800D0012018BD774A116821F0F801D6
:1018E00041EAC00010607047764908607047724B4B
:1018F0005A68084322F47C121043586070477149BB
:10190000086670476C4A516821F003010143516039
:1019100070476948406800F00C007047664A51689B
:1019200021F0F001014351607047634A516821F48E
:10193000E0610143516070475F4A516821F4605192
:1019400041EAC000506070475B4A0029517A01D0DB
:10195000014300E08143517270475A49C1F8D800F1
:101960007047554A516821F4404101435160704726
:101970005149002281F8202081F82020012802D03E
:10198000042802D1052081F8200070474E490860E4
:10199000704749490A6A02430A6270474A49443912
:1019A0000860704730B5444A5168484B11F00C014B
:1019B00003D0042901D0082901D0036012E0516846
:1019C000536801F470114FF0020413F4803F04EBEC
:1019D000914102D053689B0301D53D4B00E03B4B46
:1019E0005943016051680F2303EA1111394B5C5CC4
:1019F0000168E14041605468072505EA14241C5D34
:101A000021FA04F48460546805EAD4241B5DD940AB
:101A1000C1605268032303EA92322E4B1B1F9A5C6B
:101A2000B1FBF2F1016130BD234A0029516901D0B7
:101A3000014300E08143516170471F4A00299169C9
:101A400001D0014300E08143916170471A4A0029A7
:101A5000D16901D0014300E08143D1617047164A4A
:101A60000029D16801D0014300E08143D160704773
:101A7000114A0029116901D0014300E0814311613D
:101A8000704711494039086070470E49C864704773
:101A90000949C87170470848416A41F08071416244
:101AA0007047054A0146002092680A4200D0012092
:101AB0007047014988727047001002400000FFF82B
:101AC000FFFFF6FE000042428004424200127A000C
:101AD00000093D0044000020F94910B5884202D1B8
:101AE0000121C41486E0B0F1804F09D0F549884245
:101AF0000DD101210220FFF7BBFF0021022064E08D
:101B000001210846FFF7B4FF002101205DE0EE4906
:101B1000884206D101210420FFF7AAFF00210420FA
:101B200053E0EA49884206D101210820FFF7A0FFCF
:101B30000021082049E0E649884206D10121102011
:101B4000FFF796FF002110203FE0E249884206D1CE
:101B500001212020FFF78CFF0021202035E0DE4905
:101B6000884202D10121441444E0DC49884202D178
:101B70000121CC043EE0DA49884202D101210C0562
:101B800038E0D849884202D101214C0532E0D649DB
:101B9000884206D101214020FFF76AFF0021402042
:101BA00013E0D249884206D101218020FFF760FF6F
:101BB0000021802009E0CE4988420AD18415012104
:101BC0002046FFF755FF00212046BDE81040FFF7F3
:101BD0004FBFC849884202D101210C040AE0C6491E
:101BE000884202D101214C0404E0C44988420AD150
:101BF00001218C042046FFF732FF2046BDE810404B
:101C00000021FFF72CBF10BD30B50288AC4CB24D9F
:101C1000A0420DD0A8420BD0B0F1804F08D0A94B04
:101C2000984205D0A84B984202D0A84B984203D1C5
:101C300022F070034A881A43A54B984206D0A54B60
:101C4000984203D022F44073CA881A4302808A88DB
:101C500082850A880285A0420AD0A84208D0A54AF7
:101C6000904205D0A44A904202D0A44A904201D1A9
:101C7000097A01860121818230BD30B5028C22F0C3
:101C800001020284028C8388048B22F0020224F079
:101C900073050C882C430D8915434A882A43884DC7
:101CA000A8420BD08C4DA84208D0924DA84205D036
:101CB000914DA84202D0914DA8420DD122F00805C5
:101CC0004A8923F440732A4322F004058A882A4370
:101CD0008D891D43CB892B4383800483C9888186EA
:101CE000028430BD70B5028C22F010020284028C96
:101CF0008388048B0D8824F4E6464FF6FF7404EACB
:101D0000052535430E8922F0200204EA0616164303
:101D10004A8804EA02123243694EB04202D06E4E43
:101D2000B04215D122F080064A8923F4406304EAC8
:101D30000212324322F040068A8804EA0212324339
:101D40008E8904EA86061E43CB8904EA8303334363
:101D500083800583C9880187028470BD70B5028CB9
:101D600022F480720284028C8388848B0D8824F094
:101D7000730425430E894FF6FF7422F4007204EABF
:101D8000062616434A8804EA022232434C4EB042E9
:101D900002D0514EB04215D122F400664A8923F494
:101DA000405304EA0222324322F480668A8804EA1D
:101DB000022232438E8904EA06161E43CB8904EAC6
:101DC0000313334383808583C9888187028470BD70
:101DD00070B5028C22F480520284058C8288838B39
:101DE0000C8823F4E6464FF6FF7303EA04243443D9
:101DF00025F400560D8903EA053535434E8803EA7C
:101E000006362E432E4DA84202D0334DA84205D1AE
:101E100022F480458A8903EA82122A4382808483DD
:101E2000C988A0F84010068470BD828B22F44062FD
:101E30008283828B4FF6FF7303EA01210A43828378
:101E40007047828B22F00C028283828B0A4382834A
:101E50007047028B22F440620283028B4FF6FF73BD
:101E600003EA01210A4302837047F0B5048C24F091
:101E700010040484078B048C4FF6FF7527F4734716
:101E800005EA03333B4305EA02221A430C4B05EAF9
:101E9000011698420ED0104B98420BD0B0F1804FF3
:101EA00008D0084B984205D0074B984202D0074B08
:101EB000984225D124F02001314341F0100124E063
:101EC000002C01400004004000080040000C0040CD
:101ED000001000400014004000340140004C01405C
:101EE000005001400054014000180040001C004018
:101EF00000200040004001400044014000480140F3
:101F000024F0A0030B4343F0100102830184F0BDD1
:101F1000028B22F00C020283028B0A430283704779
:101F200070B5048C24F001040484058B048C4FF6F6
:101F3000FF7606EA0313134325F0F305F84A2B4313
:101F400090420ED0F74A90420BD0B0F1804F08D0AB
:101F5000F54A904205D0F54A904202D0F44A9042A8
:101F600002D124F0020201E024F00A020A4342F006
:101F700001010383018470BD2DE9F84F0D4604462D
:101F80000888E74FDFF89CC3DFF89C83DFF89C9359
:101F90004988AA882B894FF0804A48B304282FD05B
:101FA0004FF6FF760828934632D0208C9E4620F4C8
:101FB00080502084A38B208C06EA0132009223F407
:101FC000734306EA0B221A4306EA0E331343BC425C
:101FD0000AD0644508D0544506D0444504D04C4549
:101FE00002D0D34A944242D120F40050009940E0FC
:101FF0002046FFF795FFE9882046BDE8F84F87E7C0
:102000002046FFF732FFE9882046BDE8F84F20E779
:10201000208C20F480702084B4F81CE0208C06EA28
:10202000031306EA01222EF0F30E43EA0B0343EA00
:102030000E030092BC420AD0644508D0544506D035
:10204000444504D04C4502D0B94A944203D120F40F
:102050000070009901E020F42060084340F4807093
:10206000A3832084E9882046BDE8F84FE9E620F400
:102070000240084340F48050A3832084E98820462E
:10208000BDE8F84FD1E62DE9F0410C46002649881D
:102090000746012501B90226A288012A00D102259E
:1020A000208823890028384610D0FFF7DEFEE1881B
:1020B0003846FFF7CEFE23892A4631463846FFF7D9
:1020C0002FFFE1883846BDE8F04121E7FFF728FF00
:1020D000E1883846FFF71CFF23892A4631463846F7
:1020E000FFF7C3FEE1883846BDE8F041B1E610B520
:1020F0000A884B88CC881A438B8823431A430B8960
:102100001A434B8989891A430A43A0F8442010BD19
:102110004FF6FF71818000210180C18041800172F2
:1021200070470021018041808180C180018141810F
:102130008181C1817047002101804180012282801C
:10214000C180018170470021018041808180C18070
:1021500001814181818170470029018802D041F0CD
:10216000010101E021F0010101807047002930F8F0
:10217000441F02D041F4004101E0C1F30E0101808F
:102180007047002A828901D00A4300E08A43828195
:102190007047818270471143A0F848107047002AA9
:1021A000828901D00A4300E08A4382817047018915
:1021B00021F0070101817047028922F070020A4371
:1021C0000281704700B50346FFF7F6FF188940F01B
:1021D0000700188100BD70B516460D4660290446FB
:1021E0004FF0010231460AD0FFF79AFE29462046F9
:1021F000FFF7E2FF208940F00700208170BDFFF764
:1022000034FEF3E730B504894FF6FF7505EA032382
:102210001343E4B20B432343038130BD10B504469E
:10222000FFF7F0FF208940F07700208110BD10B546
:102230000446FFF7E7FF208940F48040208110BD6D
:10224000018582827047028822F070020A43028070
:10225000704770B50589048B068C25F007050D4382
:102260004FF6FC410C4040F201110C434FF6FF7158
:1022700001EA031126F0220611433143058104834C
:10228000018470BD028B22F070020A430283704702
:10229000028B4FF6FF7322F4E04203EA012111435F
:1022A00001837047828B22F070020A438283704759
:1022B000828B4FF6FF7322F4E04203EA01211143BF
:1022C000818370470029018802D041F0800101E03C
:1022D00021F08001018070470029818802D041F0FF
:1022E000040101E021F00401818070470029818808
:1022F00002D041F0080101E021F00801818070471F
:102300000029818802D041F0010101E021F00101A2
:1023100081807047028B22F008020A4302837047D3
:10232000002C01400034014000040040000800403F
:10233000000C0040028B4FF6FF7322F4006203EAA8
:10234000012111430183EAE7828B22F008020A434C
:102350008283E4E7828B4FF6FF7322F4006203EA84
:10236000012111438183DAE7028B22F004020A4340
:102370000283D4E7028B4FF6FF7322F4806203EAF4
:10238000012111430183CAE7828B22F004020A4330
:102390008283C4E7828B4FF6FF7322F4806203EAE4
:1023A000012111438183BAE7028B22F080020A43A4
:1023B0000283B4E7028B4FF6FF73C2F30E0203EA07
:1023C000012111430183AAE7828B22F080020A4394
:1023D0008283A4E7828B4FF6FF73C2F30E0203EAF7
:1023E0000121114381839AE7028C22F002020A4301
:1023F000028494E7028C22F008020A4302848EE7EA
:10240000028C4FF6FF7322F0200203EA0111114300
:10241000018484E7028C4FF6FF7322F0800203EA06
:102420000111114301847AE7028C4FF6FF7322F405
:10243000007203EA01211143018470E7028C4FF618
:10244000FF7322F4006203EA01211143018466E76D
:10245000028C4FF6FF7322F4005203EA013111435C
:1024600001845CE710B50123048C8B409C430484F9
:10247000038C8A401343038410BD10B50423048CDD
:102480008B409C430484038C8A401343038410BD17
:1024900030B50124058C00F118038C40A543058458
:1024A00089B108290FD0091FC1F34E0018440168F3
:1024B00021F4E041016001684FF6FF7303EA022254
:1024C0001143016030BD03EB5100016821F0700140
:1024D00001600168F4E70029018802D041F002019F
:1024E00001E021F00201018019E70029018802D0F2
:1024F00041F0040101E021F0040101800FE700290F
:10250000818802D041F0800101E021F080018180CA
:1025100005E7028822F00802028002880A4302804E
:10252000FDE6828822F07002828082880A438280DF
:10253000F5E6028922F00702028102890A4302813C
:10254000EDE6028922F08002028102890A430281BB
:10255000E5E68184E3E68185E1E68186DFE60187C1
:10256000DDE68187DBE6A0F84010D8E6028822F499
:102570004072028002880A430280D0E6808ECEE656
:10258000008FCCE6808FCAE6B0F84000C7E6808CAA
:10259000C5E6008DC3E602460020128A0A4200D03A
:1025A0000120BCE6C9430182B9E602460020138A35
:1025B00092890B4202EA010202D0002A00D00120D7
:1025C000ADE6C9430182AAE600B585B06846FFF7CB
:1025D000E9F9019805B000BD10B5FFF7F5FF114905
:1025E0000A6842F080720A600F4900224A600A6855
:1025F00042F001020A60BDE8104000F075B80A48D8
:102600004068704710B50446FFF7DEFF0021074A17
:102610000B4605F016FF02460B462046002105F04A
:1026200010FF10BDFCED00E0001000E040420F0084
:1026300010B500F0E1F8044610216A4800F0DAF91C
:102640002046BDE8104000F0DBB8674910B5002017
:102650000860FFF7C1FFBDE81040E9E7FEE770B58D
:1026600005460C000ED075B100F0C6F806461022E3
:102670005C49284600F0C6FC304600F0C1F8002056
:10268000208070BDFEE70A20088070BD70B50C0088
:10269000054612D095B1102100F0A6FC102810D2EA
:1026A00000F0AAF80646102229464E4800F0AAFC7F
:1026B000304600F0A5F8002005E0FEE70A2008807B
:1026C00070BD4FF47A70208070BDFFF798BF7047DF
:1026D000020004D04448006810B1002102E0FEE787
:1026E0004FF4FA61118070473F490860704710B598
:1026F00000F08DF8183810BD10B500F088F81038CB
:1027000010BD00F084B8F0B54FF0FF370C0E0B0C85
:102710000D0A0026354A3F1A8E411CD24FF0FF3772
:102720003E0C3F1A8E410AD24FF0FF36350A301A5E
:102730008D4101D2105DF0BDD05C0830F0BD4FF08E
:10274000FF34FF23201A8B4102D2505D1030F0BDC0
:10275000505C1830F0BD4FF6FF740023241A8B41F3
:1027600011D26FF07F440023241A8B4105D2000E52
:1027700040EA0120105C2030F0BD000C40EA01402E
:10278000105C2830F0BDFF240023241A8B4105D2B1
:10279000000A40EA0160105C3030F0BD105C383057
:1027A000F0BD08B100F036B80820704708B100F05D
:1027B00031B81020704708B100F02CB820207047C5
:1027C00000B550EA01020BD0C243521CCB4343F187
:1027D000000310401940FFF796FFC0F13F0000BD15
:1027E000402000BDF0110020540000201C91000882
:1027F00072B6704762B67047EFF3108072B67047DA
:1028000080F31088704730BF704720BF7047B0FA20
:1028100080F0704790FAA0F0B0FA80F0704790FA1C
:10282000A0F07047A0F14101192902D96138192897
:1028300001D80120704700207047A0F141011929FB
:1028400005D92039192902D93038092801D80120A1
:102850007047002070476138192801D8012070475F
:10286000002070474138192801D801207047002006
:1028700070473038092801D8012070470020704780
:102880003038072801D80120704700207047A0F198
:102890003001092905D91139052902D961380528DE
:1028A00001D80120704700207047202803D0092854
:1028B00001D0002070470120704720280BD00D2840
:1028C00009D00A2807D00C2805D0092803D00B28E6
:1028D00001D0002070470120704720385E2801D8C1
:1028E000012070470020704721385D2801D8012061
:1028F000704700207047A0F120015E2916D82028DB
:1029000014D00D2812D00A2810D00C280ED0092877
:102910000CD00B280AD021391A2907D320391A29BB
:1029200004D330380A2801D30120704700207047B3
:1029300041B2002901DB1F2803D97F2801D00020E4
:10294000704701207047A0F14101192900D82030BB
:10295000C0B27047A0F16101192900D82038C0B277
:10296000704700B50B46FFF7F5FF02461846FFF724
:10297000F1FF824201D1012000BD002000BD000016
:10298000FD48FE490246C0E9001200218160C16095
:10299000016141618161C16101620163C1624162A2
:1029A00000F148018163C1634FF4806101644164B7
:1029B000F3480260704710B500231C46641C41EACE
:1029C0000323042CFAD310F0030404D109E0521EAF
:1029D00000F8011B641C22B1042CF8D301E008C0EC
:1029E000121F042AFBD202E000F8011B521E002A2B
:1029F000FAD110BD0A460021DDE730B4814202D988
:102A000030BC00F0C1BD10441144401E491E431AA1
:102A1000042B28D300F0030301F00304A34201D1E7
:102A2000012400E00024F4B1032B07D109E05B1E70
:102A300011F8014900F801495BB2521E0AB1002B9E
:102A4000F5DAC01EC91E04E051F8043940F8043913
:102A5000121F042AF8D2C01CC91C04E011F8013965
:102A600000F80139521E002AF8D130BC704770B509
:102A7000034662B16BB161B113441144012003F00C
:102A8000030401F00305AC4205D1012504E0012057
:102A900070BD002070BD0025DDB1BCB113F8015D33
:102AA00011F8016DB54200D00020521E641E0128AD
:102AB000F0D1002AF1D109E053F8044D51F8045D3A
:102AC000AC4200D00020121F01280AD1042AF3D200
:102AD00007E013F8014D11F8015DAC4200D0002071
:102AE000521E0128D6D1002AF3D170BD30B5C36B78
:102AF000B3FBF2F402FB14340CB1121B00E0002211
:102B0000446C11448C4201D2002030BD5D18611A22
:102B1000C5631A444164104630BD10B5B0FBF3F4F0
:102B200003FB140000B1181AB2FBF3F403FB1424E6
:102B30000CB11B1B00E0002310441A44491E02FB89
:102B4000010010BD2DE9FC5F1F4614008A46834634
:102B500000D101AC0020884E2060FFF74DFE0090B0
:102B600053465A460121D6F84480F06BFFF7D5FF53
:102B7000054642F2E279404506D90098FFF740FE4B
:102B8000A5EB0800206012E0524659463046FFF798
:102B9000ADFF0600009807D0FFF732FE42F210703A
:102BA00038803046BDE8FC9FFFF72AFE2560A7F875
:102BB00000900020F6E72DE9F04116460D46044648
:102BC000FFF71AFE6368996B01B96B4BDF6B5C6CA6
:102BD000FFF716FE012D06D9B7FBF5F005FB1070C7
:102BE00000B1281A241A42F2107030802046BDE845
:102BF000F0810A4601466048DDE7B8B1614A0260EB
:102C0000002242608260C260026142618261C261F0
:102C10000262826242630263C26242628263C26390
:102C20000264426442F210700880704742F21170F0
:102C3000FAE72DE9FF4F89B08A46DDE918790446A5
:102C400007B906AF0020386049462046FFF7D5FF98
:102C5000B9F80010A1F51C50103859D14848006847
:102C600090B10020DFF810810290FFF7C5FD0590BC
:102C70005FEA0A000BD002460B9800261318404862
:102C8000B3465B1E056848E042F2E7713EE0D8F8C3
:102C90003C1003910423C34645461A460C990398F9
:102CA000FFF73BFF0399049008440890DDE91623E1
:102CB0000C99FFF732FF00900099049846460844AB
:102CC0000290D8F844100191884261D90598FFF725
:102CD00097FDDDE901103CE0A86B504506D1D5F821
:102CE00040C00B998C4501D12E4618E0296C014457
:102CF000491E834213D3824203D98B4201D98A42AF
:102D000009D80598FFF77CFD42F27F71A9F8001001
:102D10000DB0BDE8F08FAB46ED68002DDCD136B9C3
:102D2000C4E90EAA0B9820640B982646606404231D
:102D30001A46D8F83C000C99FFF7EFFE0490D8F83B
:102D400044100191884206D90598FFF759FD019971
:102D50000498401A34E0F06B0890DDE916230C99D2
:102D6000FFF7DBFE0090716C0191884210D9059845
:102D7000FFF746FD08E000000012002048454150E2
:102D8000580000204E4F4E45DDE90001401A46E054
:102D90000C9804228000014601904046FFF7A6FEF1
:102DA000039008B100201CE0D8F844400598FFF7D4
:102DB00027FDBAF1000F07D00198A04200D9001BEF
:102DC000386042F2E27054E00298F6E7DDE916124C
:102DD0003046FFF78BFE90B1039941F8280008F1C7
:102DE00001000C9980468842F0D3A64220D1C4E964
:102DF00002B55FEA0B0016D0CBF80C4015E0F56B7E
:102E0000746C0598FFF7FCFC0C98DDE91623A0EB29
:102E100008012846FFF781FEA04200D9001B386058
:102E200042F2D87025E06E4804603DB1AC6005E028
:102E30007069C4E90460746100B104616948C4E95F
:102E400000060898A061009908980844401EE061B7
:102E5000039820620098A062179860631698206318
:102E60000C98E0620C9860620598FFF7C9FC42F28A
:102E70001070A9F800004BE770B50D460446FFF747
:102E8000BBFC646AFFF7BCFC42F21070288020464D
:102E900070BD70B515460446FFF7AEFC616A49B1D6
:102EA000E26A91420BD9FFF7ABFC42F295702880A1
:102EB000002070BDFFF7A4FC42F2DE70F7E7491E68
:102EC0006162226A52F82140FFF79AFC42F21070C8
:102ED0002880204670BD70B514460E460546FFF7A3
:102EE0008BFCEA6A911B491E42F295768A4202D90E
:102EF0006A6A8A4204D9FFF783FC2680002070BDED
:102F00002A6A52F82150FFF77BFC42F210702080B1
:102F1000284670BD2DE9F04116460D460446FFF7E0
:102F20006BFCE76A626A8446BA4204D3FFF768FC26
:102F300042F2DD701EE04FF0000E1346206A04E0FE
:102F400050F82310A94205D05B1C9F42F8D8BEF16F
:102F5000000F03D050F8221040F82310D4E90801E4
:102F600040F82150606A401C60626046FFF748FCF0
:102F700042F2107030803AE62DE9F04115460E46D7
:102F800004464FF0FF37FFF737FC0246E16A606AFC
:102F9000884205D31046FFF733FC42F2DD701CE097
:102FA0004FF0000C05E0236A53F82030B34205D0FF
:102FB000401C8142F7D8BCF1000F09D00C1A104612
:102FC000641EFFF71DFC42F21070288020460EE6BA
:102FD0001046FFF715FC42F288702880384606E656
:102FE00058000020504F4F4C002201E0401C521C62
:102FF00018B103780BB18A42F8D3104670474FF0EE
:10300000FF31F1E730B5002811D089B10346002423
:1030100005E0491C03F8015B641C4BB141B10D781C
:103020000DB19442F5D3944201D20021197030BD04
:10303000002030BD4FF0FF32E4E730B5002816D055
:10304000B1B1002A13D0034601E05B1C10D01C78FC
:10305000002CFAD104E0491C03F8015B641C3BB16D
:1030600031B10D780DB19442F5D30021197030BD06
:10307000002030BD4FF0FF32DFE7F0B532B330B1A2
:1030800011B304460B46401C491C002508E0E9B179
:1030900008784042F0BD401C491C5B1C641C6D1C40
:1030A00026781F78BE4204D11EB110B109B19542F5
:1030B000F1D395420AD0F4B2FAB2944201D0B01AD8
:1030C000F0BD1EB10028E2D00078F0BD0020F0BDB8
:1030D0004FF0FF32D1E72DE9F0475FEA020A41D015
:1030E00070B181B10446461C0F464D1C0078FFF7B5
:1030F0002AFC81463878FFF726FC4FF0000811E0E3
:1031000079B3087829E0007821E008F1010814F883
:10311000010F6D1C761C7F1CFFF715FC814638786B
:10312000FFF711FC814505D1217819B116B10DB118
:10313000D045EAD3D04515D04946814503D0A9EB07
:103140000000BDE8F0870800FBD026B13078BDE86C
:10315000F047FFF7F8BB25B12878FFF7F4FB4042B2
:10316000EFE7FFE70020ECE74FF0FF32B3E710B5E1
:10317000002812D081B1002303E0401C03F10103B9
:103180000BD004781CB1944201D08B42F5D38B4212
:1031900002D2E1B2914200D0002010BD0A464FF0A9
:1031A000FF31E4E730B5154604000FD071B1491E78
:1031B000FFF71AFF20180AD000E0401EA04202D0FC
:1031C0000178A942F9D10178A94200D0002030BD90
:1031D0000A464FF0FF31E5E730B5002803D00BB1C8
:1031E000044607E0002030BD8D4200D122705B1EF6
:1031F000641CF8D02578002DF5D0002BF4D130BD1B
:103200004FF0FF33E8E72DE9F0418C46060032D05D
:10321000BCF1000F2FD072B3501C01D0511C01E043
:103220004FF0FF310D4611463046FFF7DDFE0446F4
:1032300029466046FFF7D8FE050014D0A5421AD8EB
:10324000301911D01CEB05000ED0671B002430197B
:1032500080462A466146FFF710FF010006D0002095
:10326000641C28B106E03046BDE8F0810120F7E794
:10327000BC42ECD909B10020F6E74046F4E74FF034
:10328000FF32C0E72DE9FF5F074611980E9C1646F6
:103290008946002876D00025AA46B9F1000F00D152
:1032A0000125B01E232800D3012514B32046FFF7C3
:1032B00014FB01281CD1302C1BD0A4F13000C1B26A
:1032C0000F98012802D0A4F1410001E0A4F16100AF
:1032D000C0B20A2E02D8B14206D307E00A2903D3AE
:1032E000A6F10A01884201D2012000E0002000B1CD
:1032F0000125119A55BBB846012003E0B8FBF6F84A
:10330000401CC0B2B045F9D20399012900D0002178
:1033100000EB010CCC4518D84FF0000B4B4648454C
:1033200000D318464CB1A9EB0000401A4B4610F0F0
:10333000FF0F04D0302C04D001E00844C3B20020B9
:1033400000E0012082460DB901E001254B461099AD
:10335000D01809B1002101700021401E31E00DB1EB
:103360003F2218E027B919B1039A012A16D024E0A8
:103370003A46B7FBF6F706FB1722D2B20A2A02D268
:10338000303208E021E0DDF83CC0BCF1010F01D093
:10339000373200E0573200F8012911E05AEA0B02F7
:1033A00005D0BAF1000F08D05A1E914205D12D2246
:1033B00000F801294FF0010B02E00CB100F80149BF
:1033C000491C9942CBD31DB1002004B0BDE8F09F49
:1033D0001198FAE77FB50DF1200C9CE870008DE89C
:1033E00078000023FFF74EFF04B070BD2DE9FF41C8
:1033F0001C46DDE90B650A9F002802DA40420123E2
:1034000000E00023CDE90047CDE90265FFF73AFF70
:1034100004B029E72DE9FF5F1E4615465FEA010962
:10342000824601D10DF10809C9F800A00E9808B92B
:1034300003A80E90002101705FEA0A0003D0012D5D
:1034400001D0242D01D90020BFE70446007801E017
:1034500014F8010FFFF731FA0128F9D020782B2852
:1034600003D02D2805D0002007E04FF0000B641C8E
:1034700004E0012E00D1641C01208346019425B193
:10348000082D11D0102D22D112E02078302801D043
:103490000A251CE014F8010F582803D0782801D021
:1034A000082514E010250CE0207830280ED00EE01E
:1034B000207830280BD114F8010F582801D0782833
:1034C00005D16078FFF7E3F9012800D1641C0026DC
:1034D000B046009627783846FFF7AFF9012824D187
:1034E0003846FFF7C6F901280CD03846FFF7B3F984
:1034F000012809D0373FF9B2A94216D2B8F1000F1E
:1035000004D00EE0303FF6E7573FF4E71D4850F88F
:103510002500B04203D306FB05168E4201D24FF0C0
:1035200001080098641C0028D4D0B8F1010F01D123
:103530004FF0FF360198844202D0C9F8004001E004
:10354000C9F800A00E99304681F800B03DE708B5F3
:1035500000230093FFF75EFF08BD1CB501AB00938D
:103560000123FFF757FF9DF804204FF0004122B1DF
:10357000884200D2414208461CBD8842FCD36FF00D
:1035800000401CBD1C920008002800D17047002993
:1035900000D17047002A00D170472DE9F81F00F0D4
:1035A000030301F00304A34211D1C3F1040303F0A8
:1035B0000303012B1DD3012A00D2F2E011F8014BC5
:1035C00000F8014BA3F10103A2F10102F1E700F0C1
:1035D000010301F00104A34200D094E0012B44D385
:1035E00011F8014B00F8014BA3F10103A2F1010214
:1035F000F4E7B2F5B47F26D3B1E8F81FA0E8F81FCE
:10360000B1E8F81FA0E8F81FB1E8F81FA0E8F81F1C
:10361000B1E8F81FA0E8F81FB1E8F81FA0E8F81F0C
:10362000B1E8F81FA0E8F81FB1E8F81FA0E8F81FFC
:10363000B1E8F81FA0E8F81FB1E8F81FA0E8F81FEC
:10364000A2F5B472D5E7282A06D3B1E8F81FA0E89E
:10365000F81FA2F12802F6E7042A06D351F8043B2A
:1036600040F8043BA2F10402F6E7202A42D331F8E5
:10367000023B20F8023B31F8023B20F8023B31F8D4
:10368000023B20F8023B31F8023B20F8023B31F8C4
:10369000023B20F8023B31F8023B20F8023B31F8B4
:1036A000023B20F8023B31F8023B20F8023B31F8A4
:1036B000023B20F8023B31F8023B20F8023B31F894
:1036C000023B20F8023B31F8023B20F8023B31F884
:1036D000023B20F8023B31F8023B20F8023B31F874
:1036E000023B20F8023B31F8023B20F8023BA2F1FA
:1036F0002002BAE7022A06D331F8023B20F8023B47
:10370000A2F10202F6E7102A42D311F8013B00F8B9
:10371000013B11F8013B00F8013B11F8013B00F8B7
:10372000013B11F8013B00F8013B11F8013B00F8A7
:10373000013B11F8013B00F8013B11F8013B00F897
:10374000013B11F8013B00F8013B11F8013B00F887
:10375000013B11F8013B00F8013B11F8013B00F877
:10376000013B11F8013B00F8013B11F8013B00F867
:10377000013B11F8013B00F8013B11F8013B00F857
:10378000013B11F8013B00F8013BA2F11002BAE73E
:10379000012A06D311F8013B00F8013BA2F1010216
:1037A000F6E7BDE8F81F704770470000F64CF74D8C
:1037B000FFF722F82168491C21602968491C29600B
:1037C000FFF71EF804F078FDF2E700B5EE4A89B085
:1037D000002111600B2205910691CDE90720EC48EC
:1037E000EC4AED4B006812681B680292CDE90301B8
:1037F0003F20CDE900030023AFF24F02E7A1EC48E0
:1038000003F047F809B000BD0020EA4B024600EB88
:10381000400103EB8101401C0A810A60C0B24A608A
:103820004028F4D3704710B5044604F04BFDE2483D
:1038300000220A210270E1480270E1480270E1486A
:103840000260E1480260E1480270E1480270E1482C
:103850000270E1480260E1480260E1480260E1482C
:103860000270E1480068B0FBF1F0E0490860E0490F
:10387000086830B1DF48006818B1096804C0491E03
:10388000FCD1DD480260DD480260DD480260DD48B1
:103890000260DD480260DD480260DD480260DD480C
:1038A000027001F02BFFFFF7AFFF204601F08DF80B
:1038B0002088002847D1204601F0D9FA2088002826
:1038C00041D1204601F0FCFA208800283BD1204657
:1038D00001F0FDFE2088002835D1204602F03AFA9A
:1038E000208800282FD1204602F0E2FC2088002802
:1038F00029D1204603F058FE2088002823D12046F5
:1039000001F062F9208800281DD12046FFF75DFFF5
:103910002088002817D1204603F046FF2088002881
:1039200011D1204602F04FFE208800280BD12046FE
:1039300004F032FC2088002805D100F0A5FCBDE889
:103940001040FFF731BF10BD9C480078012805D119
:1039500099490878FA2801D2401C087070479748A6
:1039600010B5007801282BD1FEF746FF9249044696
:10397000087800B3401E10F0FF0008701BD190487B
:103980000078C0B901F0C3FE91490870894900EB85
:10399000400051F820008C4908608A490968884233
:1039A00009D050F8901F491C01609B480168491CD0
:1039B000016004F093FF2046BDE81040FEF720BFF1
:1039C00010BD7D4810B50078002824D17C480078CF
:1039D000002820D1FEF710FF044601F098FE7C4934
:1039E0000870744900EB400051F8200076490860E7
:1039F00074490968884209D050F8901F491C016039
:103A000085480168491C016004F063FF2046BDE859
:103A10001040FEF7F5BE10BD694810B500780128CA
:103A200003D1FEF7ECFD6C49086010BD70B504468B
:103A30006148007810B146F6625019E05F4800789E
:103A4000012802D045F6896012E05D4D2878FA28F9
:103A500002D345F209200BE0FEF7CEFE0646287899
:103A6000401C2870FFF7D8FF3046FEF7C9FE002043
:103A7000208070BD524810B5007800280ED1FEF7A6
:103A8000BEFD55490968401A54490A68824200D26D
:103A9000086053490A68824200D2086010BD70B5C0
:103AA00004464548007810B146F6655023E0434887
:103AB0000078012802D045F689601CE0404E30783D
:103AC00070B1FEF799FE05463078401E10F0FF00F9
:103AD000307008D02846FEF793FE46F663500AE0A1
:103AE00046F6645007E0FFF7C5FF2846FEF788FE5C
:103AF000FFF767FF0020208070BD2DE9F0411646DA
:103B00000C460746FEF778FE36490025012F01D006
:103B10000D7001E001220A7034490CB10C6005E01F
:103B2000314A0A231268B2FBF3F20A60FEF768FE1C
:103B30003580BDE8F08110B50189002914D0012934
:103B400012D00024022907D0D0E90013CA681461FA
:103B5000C1E90343D96005E0D0E90012C1E903429D
:103B6000C2E90314C0E9002110BD70B50446124833
:103B7000007810B148F2D14079E01148007810B1D6
:103B800046F6635073E049E080000020E400002026
:103B9000C4920008C0920008BC92000875432F4FE1
:103BA000532D4949492049646C65205461736B0069
:103BB000D82A00206C2C00208400002085000020E2
:103BC000CC0000202401002028010020B2000020A9
:103BD000B3000020B4000020C0000020C40000207A
:103BE000C8000020D400002010930008D00000205E
:103BF000E8920008E49200086400002068000020B9
:103C00006C0000207000002074000020780000206C
:103C10007C00002002010020F8000020F748007816
:103C2000012802D046F67B1021E0FEF7E5FD0646AE
:103C3000F348F449007800EB400001EB8005288947
:103C4000022805D23046FEF7DBFD46F67A100EE07C
:103C50002846FFF770FF2868416D09B9EA490968ED
:103C600081653046FEF7CCFDFFF7ABFE00202080DB
:103C700070BD70B5E54D0446287818B145F68A60E8
:103C8000208070BD01F043FDE1490870DC490870F7
:103C9000DC4900EB400051F82000DE490860DE49B5
:103CA00008600120287004F003FE43F69920E7E73E
:103CB0000021018047F25C60704738B14268C1F86A
:103CC000C02081688968096AC161704791F8340031
:103CD000022803D0072803D0D0A002E0D0A000E043
:103CE000D1A0C1F8C000704730B58A68002592F8AD
:103CF000374002891AB1521C028102680BE001228E
:103D000002814D600D60016014E0936893F83730D4
:103D1000A34203D85268002AF7D107E032B11368F2
:103D200053B1C1E900325960116030BD4D60426845
:103D30000A605160416030BD1160C1E9005201600C
:103D400030BD10B5C2870024234601630EE04B60EE
:103D500041F8103B641C41F8103BA4B241F80C3C04
:103D600021F8083C41F8043C41F8180C9442EED389
:103D700010BD70B5044690F83700A24900EB400032
:103D800001EB8001D4E90320002540B10B895B1EC3
:103D90000B81C26092B110612561E56070BD2AB1EE
:103DA0000889401E088115610A60F5E70D810D60E4
:103DB0004D6094F8370001F0C8FCEDE74860EBE790
:103DC00038B50446022531B16B46022203F025FDC9
:103DD000BDF8000028B184F836502046FFF7C9FF2F
:103DE00038BD032084F83600F7E72DE9F0418A4D0D
:103DF00007460C4628680026194680F8342080F8CB
:103E00003560FFF7DDFF64B1FC6004F108060122B4
:103E100039462868FFF795FF39463046FFF764FFBB
:103E200002E02868C687066320462968BDE8F0419D
:103E300043E710B502890024012A0BD00A6862B159
:103E40004B6873B153601A600289521E02814C6044
:103E50000C6010BD04604460F6E74A6814600260BC
:103E6000F2E754604260EFE770B50646C58F046B19
:103E700007E0E06821460830FFF7DBFF6D1EADB2BA
:103E80002034002DF5D10020F087306370BD10B5CF
:103E90000B6BC98F08E0DC68844202D1DA611861DB
:103EA00010BD491E89B220330029F4D110BD90F80D
:103EB0003710544A01EB410102EB810100230A89CA
:103EC00042B1521C0A810A68C0E903230A681061E2
:103ED0000860704701220A81C3600361086048607E
:103EE000704790F83710474A01EB410102EB81011E
:103EF00000230A893AB1521C0A81C3604A680261F0
:103F0000D0604860704701220A81C3600361086085
:103F1000F7E710B5044690F8370001F008FC38497F
:103F200094F8370009788842204602D1BDE8104055
:103F3000D7E7BDE81040BAE710B5044603F05EFBD2
:103F400094F83610490703D42046BDE81040E0E756
:103F500010BD2DE9F041064691F8360000270C46C9
:103F600015464FF00108082835D2DFE800F0343458
:103F7000040434341A1A94F83400032803D1214677
:103F80003046FFF784FFE765A4F86070256416B13A
:103F90002046FFF769FF2046FFF7CEFF84F8367012
:103FA00015E094F83400032803D121463046FFF78A
:103FB0006EFFE765A4F86070256416B12046FFF730
:103FC00053FF204603F01AFB042084F8360084F8DF
:103FD000358084F83470ACE516A2C1F8C020816841
:103FE00011B18968096A00E012A1C161704770B51A
:103FF00080F83710C58F046B2EE00000D40000203D
:10400000B20000206C2C0020D00000208500002091
:10401000B30000202801002024010020200000001F
:104020005461736B205100005461736B2053656DB4
:104030000000000020000000E668308A08360128F1
:1040400007D921463046FFF7F4FE21463046FFF7F8
:104050004BFE6D1EADB22034002DEDD170BD0021A0
:1040600001604160018170470289521C028102682F
:104070004A6000220A60026802B111600160028990
:10408000012A00D14160704710B50B6BC98F08E061
:10409000DC68844202D1DA61186110BD491E89B220
:1040A00020330029F4D110BD2DE9F0410C4691F8E0
:1040B0003610002502261746082933D2DFE801F022
:1040C000323204043232191994F83410032903D11E
:1040D0003A462146FFF7D8FFE565A4F86050204630
:1040E0002764FFF7C1FE2046FFF726FF84F836500D
:1040F00014E094F83410032903D13A462146FFF71F
:10410000C3FFE565A4F860502046276403F076FA03
:104110002046FFF7A9FE042084F8360084F83560B5
:1041200084F8345005E570B50C6B049DC98F0AE026
:10413000E668864204D1C4E904022383E56170BDC8
:10414000491E89B220340029F2D170BDF8B50C4661
:10415000054691F836100026069808293BD2DFE87C
:1041600001F03A3A04043A3A202094F83410032932
:1041700011D0E265A4F86030206435B12046FFF725
:1041800073FE21462846FFF727FF2046FFF7D4FE9F
:1041900084F836601BE0009021462846FFF7C3FFF5
:1041A000EBE794F83410032916D0E265A4F86030E8
:1041B0002064204603F022FA35B12046FFF754FE72
:1041C00021462846FFF708FF042084F8360084F8CB
:1041D000356084F83460F8BD009021462846FFF72A
:1041E000A2FFE6E710B5FEF707FB1F4904460020D3
:1041F00008701F481D49016051F8900F401C08606D
:104200001C490868401C086004F063FB2046BDE8B8
:104210001040FEF7F5BA70B505461748007801283A
:1042200020D1FEF7E9FA04462868B0B11349884264
:1042300013D0816D11B1491E81650ED128890228E4
:104240000BD30F48007840B92846FFF774FC286864
:10425000416D09B90B49096881652046BDE8704088
:10426000FEF7CEBA70BD0000B30000209C2B0020EA
:1042700028010020F8000020D4000020D82A0020C7
:10428000CC000020D0000020704700000023FF4A2F
:10429000FDA14361C161116819B18161486110607C
:1042A00070478361FBE72DE9F0410446F8489046EA
:1042B0000F4600781D4610B142F6E16025E014B3C8
:1042C000FEF79AFAF34E3178491C3170FEF798FAEE
:1042D000F148C4E900070027C4E9088704F1080091
:1042E000FFF7BDFE2046FFF7D1FFEC490888401CD0
:1042F0000880FEF781FA3178491E3170FEF780FAA6
:104300002F80BDE8F08145F6C3501880F9E7E449F5
:1043100002C0E4A102C000218161FFF7A0BED0E984
:10432000052100232AB151B191614A618361436142
:104330007047D64A116001B14B6183617047936148
:10434000F5E72DE9F05F8046D148144689460078AC
:1043500010B143F2C92013E0B8F1000F06D00800F5
:1043600007D0012905D045F6256009E045F6C35080
:1043700006E0C949D8F80000884205D045F6C45087
:1043800010800020BDE8F09FFEF736FAC14F397863
:10439000491C3970FEF734FAB8F810505FEA09008A
:1043A000DFF8F8B2DFF8049308F10806AA460AD04D
:1043B000012842D0FEF720FA3978491E11F0FF019A
:1043C00039705DD064E05FEA0A0008D0FEF714FAA5
:1043D0003978491E11F0FF0139701FD026E04046A0
:1043E000FFF79DFFBBF800104046491EABF80010D8
:1043F000FFF78DFFFEF700FA3978491E11F0FF0133
:10440000397007D1B9F8001021B1FEF7F9F9FFF7BB
:10441000E9FE01E0FEF7F4F900200BE0B9F8001026
:1044200021B1FEF7EDF9FFF7DDFE01E0FEF7E8F957
:1044300047F25F1020805046A4E7FEF7E0F881467F
:1044400007E030684A4681684046FFF72DFE6D1E42
:10445000ADB2002DF5D14046FFF761FFBBF800106B
:104460004046491EABF80010FFF751FFFEF7C4F9B4
:104470003978491E3970FEF7C3F9FFF7A2FACBE786
:10448000B9F8001021B1FEF7BBF9FFF7ABFE01E070
:10449000FEF7B6F945F62560CCE730B4844C029DB2
:1044A000246844F8802F0022238162602B4630BCB0
:1044B0000122FFF79ABC2DE9FF4F05468BB07448E7
:1044C000DDE9186400781F46894610B146F2AE1047
:1044D00007E1ADB148F20101781A8F4229D019DC09
:1044E00040F20111A7F201108F4222D00BDC012F04
:1044F0001FD0022F1DD0042F1BD0082F16D118E07B
:1045000045F6C350EDE0012813D0032811D0072849
:104510000CD10EE0B0F5807F0BD0F4DDA0F58070FB
:10452000013806D0022804D0062802D045F62560BE
:10453000D7E059492868884202D045F6C450D0E0F7
:10454000F80501D5012000E0002080464FF0000B67
:104550000EB1C6F800B007F00F010991FEF74CF953
:1045600009994C4A4FF0010E012934D0022938D064
:10457000042902D008296ED123E0296A01EA090A38
:10458000CA4524D011E021EA0A0135E0484A126800
:10459000C2F884A00EB1696A3160FEF731F9A4F85F
:1045A00000B050460FB0BDE8F08F390426D5FEF7B5
:1045B00027F946F2B01094E0FEF722F946F6635070
:1045C0008FE0296A01EA09035FEA030AEDD0B8F136
:1045D000000FDBD0D7E7296A29EA010ACA4506D0CD
:1045E000E3E7296A29EA01035FEA030ADDD0B8F1AB
:1045F000000FCBD041EA0A012962C7E711780029F0
:10460000DAD1924682F800E0FEF7FAF80D980090B1
:104610003B464A46294601A8FFF73FFFFEF7ECF864
:104620009AF80010491E8AF80010FEF7E9F8FFF723
:10463000C8F9FEF7E1F81E4B1A6892F8351059B127
:10464000012937D0022945D003293BD0FEF7D8F8FD
:1046500046F62E6045E014E00EB1116C3160A4F80E
:1046600000B019685F46B8F1000FD1F8846041D0FE
:10467000099901293BD0022939D0042934D00829CD
:1046800032D0FEF7BDF851E7200000009C0000206A
:1046900084000020CC000020464C4147A0000020B0
:1046A0004E4F4E453F464C414700000090000020D1
:1046B000240100200EB1116C3160FEF7A1F846F222
:1046C000A9100EE00EB1C6F800B0FEF799F847F257
:1046D000D92006E00EB1116C3160FEF791F845F675
:1046E000C250208000205DE7296AB14301E0296AB9
:1046F00031432962FEF784F82780304652E72DE9DE
:10470000F05F8046B4480F461446007810B146F278
:10471000AA1012E0B8F1000F0DD04FF4807A77B1F3
:1047200057450CD0B7F5004F09D0B7F5014F06D06B
:1047300045F6256001E045F6C350108021E0A74909
:10474000D8F80000884202D045F6C450F5E7FEF7DD
:1047500053F8B8F8101008F1080569B1DFF8809235
:1047600099F80020521C89F80020FEF749F800262D
:10477000FDF745FF834610E0FEF742F846F2AB1026
:1047800020800020FEE528685A4681684046FFF7F1
:10479000E0FB761CB6B2574502D128890028F2D139
:1047A000FEF72AF899F80020521E89F80020FEF73B
:1047B00027F8380401D4FFF704F9002020803046A0
:1047C000E0E570B504468448007820B146F2AE10AA
:1047D0002080002070BDFEF70FF882490968D1F8EB
:1047E0008450FEF70DF800202080284670BD70B57B
:1047F0000025C0F8841080F8355080F83450044605
:10480000026490F8360008280ED2DFE800F00D0DA3
:1048100004040D0D0A0A2046FFF78EFB84F836507B
:1048200002E0042084F836002046BDE87040FFF71F
:104830001BBB2DE9F0479A4690460D460446089E5C
:10484000FDF7DAFF01465FEA080022D0012807D011
:10485000B0F5004F1DD06FF4004218EB020F12D1DB
:10486000206AA843C4E9080A208A04F108054FF029
:10487000000988B15A4F3878401C38700846FDF757
:10488000BFFF2D6841E00846FDF7BAFF45F62560F9
:104890005FE0206A2843E5E70846FDF7B1FFA6F888
:1048A0000090206ABDE8F08790F888106D6801F0EC
:1048B0000F01012918D002291ED004290AD0082985
:1048C0000DD0FDF799FF3978491E11F0FF013970BD
:1048D00033D03AE0216AD0F88020114009E0216A03
:1048E000D0F8802011400BE0D0F88010236A0A46EF
:1048F00099438A4205D007E0D0F88010226A91439C
:1049000011B15246FFF773FF15B1A8680028CBD14B
:10491000FDF772FF3978491E3970FDF771FF5FEAC4
:10492000084001D4FFF74DF8FDF766FF246AFDF754
:1049300067FFA6F800902046B4E72B49098821B10B
:10494000FDF75EFFFFF74EFC01E0FDF759FF43F670
:10495000FF2030800020A5E72DE9FF41154688465D
:1049600006001C460DD07DB1012D0DD0B5F5004FD0
:104970000AD06FF40040C54206D045F62560188085
:1049800019E045F6C350FAE7144F3068B84202D038
:1049900045F6C450F3E7FDF732FE03460E480078B3
:1049A00060B1CDE90234CDE9008500231A463146D5
:1049B000384600F01FF8002004B0A2E42A46414621
:1049C00030460094FFF735FFF6E7084A00211160F2
:1049D000074A11800180704784000020464C4147FF
:1049E000CC00002024010020900000209C0000202A
:1049F000A00000202DE9F05F1E46DDE90AAB9046DD
:104A00000F4681460D9CFDF7F7FEA049A04A0546DA
:104A10000888128890422BD2401C80B208809D49A1
:104A20000A88824200D208809B4A1068C0F8009031
:104A3000C0E902780682C0F814A0A0F818B00C995A
:104A4000C16140681060954801210181944901606D
:104A50004160002000F06BFE9248007808B1924956
:104A60000870002020802846BDE8F05FFDF7C8BE32
:104A70008E480188491C018044F25360F2E73EB53C
:104A80008B4C8C4A02AB206801688D1A914245D04C
:104A900015DC894A89182DD0884A891822D0884A7D
:104AA000891832D0874AD14208D1C169CDE90013B3
:104AB000038B028AC168806802F086F93EBD824994
:104AC00069181DD0814A891823D0814AD142F5D175
:104AD000C169CDE90013038B028AC168806801F0C7
:104AE0008FF83EBD0093028BC36941698068FFF770
:104AF000A0FE3EBD018BC269806801F014FB3EBD83
:104B00008068194602F049FA3EBD018BC26980688F
:104B100022E08068194602F0B6FC3EBD62485F495B
:104B2000007800EB400001EB8000FFF774FB206889
:104B300002AB0021C269674802F092FB664908682F
:104B4000401E0860E9D1654800680860FDF757FD20
:104B5000024602AB0021624802F082FB3EBD614F7B
:104B60004A4C0025DFF84881FDF746FE06462088BE
:104B7000E8B13046FDF744FEFDF741FD0646FFF77C
:104B80007EFFFDF73CFD3968801B814200D2386012
:104B9000FDF732FED8F800205268C8F800202188BE
:104BA000491E2180FDF72CFE002DDDD0D9E73B49C1
:104BB000002008810860486000F0C7FD3046FDF71E
:104BC0001FFEFEF7FEFECCE7F0B53849464D89B032
:104BD00000240C80296831B12D4E3188022905D27C
:104BE00044F2546135E044F2526132E03D49002321
:104BF0003E4F0C60296801F1200210E041F8087B6B
:104C00005B1C41F8084B9BB241F8044C21F8104B57
:104C100041F80C4C21F8084C41F81C2C2032B6F815
:104C200000C06345EAD32A6841F81C2C1A490A607F
:104C30001F490A6015492E4A0C8016490C801168DC
:104C400051B12C492C4D0B682D68AB4207D244F270
:104C50005661018009B0F0BD44F25561F9E70323C4
:104C600005940694CDE907300868244912680023AA
:104C70000968CDE903040094CDE90121AFF22112C6
:104C80001FA1074801F005FEE4E7000090000020A6
:104C9000B492000892000020880000206C2C0020B4
:104CA0009C2B0020B2000020B400002094000020C3
:104CB0008C0000205449434BADBAB2BE0DF90BFA3B
:104CC000F2F8F7FF0006F6FF00F7FDF700FFEFFF31
:104CD00003FE0FFE30300020200100201C010020C8
:104CE000F430002098000020CC9200084E4F4E4532
:104CF000D4920008DC9200080C930008D8920008B7
:104D000075432F4F532D494949204953522051751E
:104D1000657565205461736B00000000574B0022DD
:104D20008261196819B1C161886118607047C261F8
:104D3000FBE72DE9F05F04465148DDE90A7500788C
:104D4000984616468B4610B145F2B96014E045F21C
:104D5000BB615EB1B8F1020F01D2481C0CE045F214
:104D6000C160042F08D316F0030F02D02980BDE8DC
:104D7000F09F17F0030F01D02880F8E7A8F1010198
:104D80008BB23246002104E0D0191060491C024663
:104D900089B29942F8D34FF0000AC2F800A0FDF79B
:104DA0002BFDDFF8E09099F80010491C89F80010FD
:104DB000FDF726FD344884E84108E660A4F8148035
:104DC000A4F8128027822046FFF7A8FF2F48018809
:104DD000491C0180FDF710FD99F80010491E89F863
:104DE0000010FDF70DFDA5F800A0C0E770B50400A8
:104DF0000D460ED0FDF700FDA18A71B1E668491E8F
:104E00003268E260A182FDF7FBFC0020288030467A
:104E100070BD45F2BF60088004E0FDF7F1FC45F28B
:104E2000C2602880002070BD70B50E460400154693
:104E30000BD06EB1FDF7E0FCA18A628A91420BD3E0
:104E4000FDF7DEFC45F2BA600FE045F2BF6001E01D
:104E500045F2BE60108070BDE1683160E660A18AF5
:104E6000491CA182FDF7CCFC0020288070BD034ABC
:104E700000211160054A118001807047A4000020C4
:104E800084000020CC0000204D454D20A8000020CB
:104E900010B5491E8CB2002100F110020B4608E04B
:104EA000E0E80223491C20F8083B89B240F8043CA2
:104EB0001032A142F4D3036043600381C36010BD8C
:104EC00070B5524D0446286880B1514E308880B18B
:104ED00081B22868FFF7DCFF4E48296801603188FD
:104EE00081800021C1800181218070BD45F21E704A
:104EF00001E045F21D70208070BD10B5428992B16D
:104F0000444903680C681C6043680B60CB88448983
:104F10001B1BCB808B88448923448B8000214181DB
:104F2000818101604160104610BD018100214181F5
:104F30008181016041607047F0B544890025CCB1A2
:104F40004468278966680F800AB1E16811602168AA
:104F50004160B9B14189491E41812E4801682160F3
:104F600004608188491C8180C188491EC1801D80E0
:104F70003046F0BD0D8002B1156046F292501880A7
:104F80000020F0BD05604581E7E7F0B54489DDE923
:104F900005E60589AC4202D346F293501EE01D4D52
:104FA000AF88CFB12C687F1ED4F800C0C5F800C010
:104FB000AF80EF887F1CBFB2EF80B5F808C0BC455A
:104FC00000D22F814789002557B1DB060CD4036836
:104FD0001C60256004600AE045F21D703080F0BD61
:104FE00004600123446004E0436823604460438913
:104FF0005B1C438187899BB29F4200D283816160A1
:105000002281C4F80CE03580F0BD0000F492000865
:10501000B6920008602C00200023FD4AFBA14361EA
:10502000C161116819B18161486110607047836185
:10503000FBE72DE9F0410446F6480F461546007897
:1050400010B142F6E1602AE03CB3FDF7D5FBF24E29
:105050003178491C3170FDF7D3FBF048C4E90007F3
:105060000027276284F825704020A76284F8240076
:1050700004F10800FEF7F3FF2046FFF7CDFFE849F3
:105080000888401C0880FDF7B7FB3178491E317055
:10509000FDF7B6FB2F80BDE8F08145F6C3501080C8
:1050A000F9E7E04902C0E0A102C000218161417737
:1050B000016240210177FEF7D2BFD0E9052100232C
:1050C0002AB151B191614A61836143617047D04A0D
:1050D000116001B14B61836170479361F5E72DE980
:1050E000F05F0746CB480E461446007810B143F2F5
:1050F000C92008E02FB146B1012E06D045F6256043
:1051000001E045F6C3501080A4E0C44938688842E5
:1051100002D045F6C450F6E7FDF76EFBDFF8F892D3
:1051200099F80020521C89F80020FDF769FB3D8AA0
:10513000DFF8FCA207F10808AB4666B1012E48D0A3
:10514000FDF75AFB99F80010491E11F0FF0189F88C
:10515000001079D0A9E0BBF1000F0AD0FDF74CFB9D
:1051600099F80010491E11F0FF0189F8001020D0B5
:1051700027E03846FFF7A1FFA9480188491E0180B2
:105180003846FFF78EFFFDF737FB99F80010491EF0
:1051900011F0FF0189F8001007D1BAF8001021B111
:1051A000FDF72EFBFFF71EF801E0FDF729FB0020BD
:1051B0000BE0BAF8001021B1FDF722FBFFF712F85F
:1051C00001E0FDF71DFB47F25F1020805846BDE867
:1051D000F09F3E6A16B396F8370097F8241088427D
:1051E0001CD096F8360008281CD2DFE800F0041125
:1051F0001414111114143046FEF7BBFD97F8240067
:1052000086F8370000F093FA3046FEF76AFE05E0B4
:1052100086F8371002E03046FEF7E9FEFDF7EFF9B9
:10522000064622E0FDF7E8FA99F80010491E11F051
:10523000FF0189F8001008D1BAF8001029B1FDF774
:10524000DFFAFEF7CFFF02E027E0FDF7D9FA46F6D6
:105250002D6020800020BAE7D8F80000324681682F
:105260003846FEF721FF6D1EADB2002DF4D1384651
:10527000FFF723FF6A480188491E01803846FFF77F
:1052800010FFFDF7B9FA99F80020521E89F80020A6
:10529000FDF7B6FAFEF795FB89E7BAF8001021B1E1
:1052A000FDF7AEFAFEF79EFF01E0FDF7A9FA45F61D
:1052B00025608AE72DE9F04F0646564889B01C461E
:1052C0000078129D17468B4610B146F2AE10C9E029
:1052D00036B147B1B7F5004F05D045F62560C1E0BE
:1052E00045F6C350BEE04D493068884202D045F6CD
:1052F000C450B7E04FF000080CB1C4F80080FDF7CF
:105300007BFA96F825104B4B012281B19A46D6F8CC
:1053100020C01B689C451CD1491C86F825100CB187
:10532000B16A2160FDF76CFA45F282709AE0196863
:10533000316291F8371086F8241086F825200CB1D8
:10534000B16A2160FDF75CFAA5F8008009B0BDE8FC
:10535000F08F390404D5FDF753FA46F2B01081E01E
:105360002D490B7823B1FDF74BFA46F6635079E0EF
:1053700089460A70FDF744FA376ADAF8000097F8B0
:10538000372090F837108A421ED997F8360008283F
:1053900052D2DFE800F0041316161313161638461F
:1053A000FEF7E7FCDAF8000090F8370087F83700DE
:1053B00000F0BDF93846FEF77AFD05E087F83710B2
:1053C00002E03846FEF713FE5B460422314668468B
:1053D000FEF70BFDFDF710FA99F80020521E89F830
:1053E0000020FDF70DFAFEF7ECFAFDF705FADAF802
:1053F000002092F8351041B101293BD0022948D054
:1054000003293DD046F62E613FE02DE0200000004C
:10541000AC00002084000020CC0000204D555458E2
:10542000B00000204E4F4E453F4D555445580000AA
:105430009000002024010020FDF7DEF999F800100B
:10544000491E11F0FF0189F8001007D1A34909880E
:1054500021B1FDF7D5F9FEF7C5FE01E0FDF7D0F962
:1054600046F62D60288071E70CB1116C2160A5F81B
:1054700000800BE00CB1116C216046F2A91104E030
:105480000CB1C4F8008047F2D9212980FDF7B8F9A2
:105490005CE70CB1116C216045F6C251F5E72DE9CE
:1054A000F05F80468E480F461446007810B146F2F1
:1054B000AA1012E0B8F1000F0DD04FF4807A77B146
:1054C00057450CD0B7F5004F09D0B7F5014F06D0BE
:1054D00045F6256001E045F6C350108021E0814982
:1054E000D8F80000884202D045F6C450F5E7FDF731
:1054F00083F9B8F8101008F1080569B1DFF8E891F0
:1055000099F80020521C89F80020FDF779F900264F
:10551000FDF775F8834610E0FDF772F946F2AB101F
:105520002080002053E628685A4681684046FEF7EE
:1055300010FD761CB6B2574502D128890028F2D159
:10554000FDF75AF999F80020521E89F80020FDF75E
:1055500057F9380401D4FEF734FA00202080304691
:1055600035E62DE9F84F04465D4815468A46007831
:1055700010B146F20E2011E03CB1080008D0B1F5A0
:10558000004F05D045F6256008E045F6C35005E01C
:1055900054492068884204D045F6C4501080BDE8C4
:1055A000F88FFDF729F9DFF84491226AD9F8001045
:1055B0008A4204D0FDF724F945F281706CE0DFF8EF
:1055C000288198F80020521C88F80020FDF718F96F
:1055D000FDF715F80646A06294F82500DFF8FCB048
:1055E000401E10F0FF0084F8250016D0FDF704F9E6
:1055F00098F80010491E11F0FF0188F8001007D13B
:10560000BBF8001021B1FDF7FBF8FEF7EBFD01E060
:10561000FDF7F6F845F283703EE0208A04F10807B2
:10562000E0B3D9F8000094F8243090F837209A427B
:1056300013D0FEF79EFBD9F8001094F8240081F8EF
:10564000370000F074F8D9F80000FEF74AFCD9F8EA
:105650000000274990F837000870386800231A4680
:105660008168216291F8370084F82400012084F8D1
:10567000250020460096FEF769FDFDF7BDF898F875
:105680000020521E88F80020FDF7BAF85FEA0A40B1
:1056900001D4FEF796F90020288080E7FFE7002676
:1056A0002662FDF7A9F898F80010491E11F0FF01D5
:1056B00088F8001007D1BBF8001021B1FDF7A0F861
:1056C000FEF790FD01E0FDF79BF82E8067E7094AA1
:1056D00000211160084A118001807047900000206D
:1056E000840000204D555458CC0000202401002097
:1056F000B2000020AC000020B000002000201A4AB8
:10570000014642F82010401C0228FAD3704710B519
:105710000024154802E02034E4B2001D016800298D
:10572000F9D00846FDF773F82044C0B210BD00F070
:105730001F0241090120C2F11F0290400A4A52F89B
:105740002130034342F82130704700F01F02410925
:105750000120C2F11F029040034A52F821308343D6
:1057600042F82130704700005C0000200023F84A16
:10577000F6A14361C161116819B18161486110608E
:1057800070478361FBE72DE9F0410446F148174675
:10579000884600781D4610B142F6E1602CE034B333
:1057A00047B3FDF729F8EC4E3178491C3170FDF70D
:1057B00027F8EA48C4E90008394604F12000FFF759
:1057C000B4FB04F10800FEF74AFC2046FFF7CEFFC9
:1057D000E3490888401C0880FDF70EF83178491E1F
:1057E0003170FDF70DF800202880BDE8F08145F606
:1057F000C35001E046F294501880F6E770B50446B5
:1058000020300546FFF779FBD6482060D6A06060BF
:1058100000212846FFF789FB04F10800BDE870402D
:10582000FEF71DBCD0E9052100232AB151B19161D9
:105830004A61836143617047C54A116001B14B61A0
:10584000836170479361F5E72DE9F05F0746C14832
:1058500014468946007810B143F2C9200BE047B1E5
:10586000080045F6256B0AD0012908D0A2F800B03F
:1058700002E045F6C35010800020BDE8F09FB74914
:105880003868884202D045F6C450F4E7FCF7B4FF0C
:1058900082463D8A5FEA0900DFF8C49207F10806F4
:1058A000A84608D001281FD05046FCF7A9FFA4F84D
:1058B00000B04046E1E75FEA080006D05046FCF73A
:1058C0009FFF47F25F102080F3E73846FFF7AAFFFB
:1058D000B9F800103846491EA9F80010FFF78EFFEE
:1058E0005046FCF78DFF2DE0DFF86CB250469BF878
:1058F0000010491C8BF80010FCF782FFFCF77FFEBC
:10590000824607E03068524681683846FEF7CCFB95
:105910006D1EADB2002DF5D13846FFF783FFB9F803
:1059200000103846491EA9F80010FFF767FFFCF782
:1059300063FF9BF80020521E8BF80020FCF760FFED
:10594000FEF73FF80020BEE770B5054681480C46DB
:10595000007810B14FF46C500BE045B17F492868D6
:10596000884208D045F6C4502080002070BD45F61E
:10597000C3500880F9E7FCF73FFF774E3178491CA8
:105980003170FCF73DFF05F12000FFF7B6FA054640
:10599000FCF732FF3178491E11F0FF01317007D159
:1059A0007249098821B1FCF72BFFFEF71BFC01E0CF
:1059B000FCF726FF00202080284670BD2DE9F04F1F
:1059C000074689B06348DDE9125400781E469146C7
:1059D0008B4610B146F2AE1040E047B156B1100010
:1059E0000BD0B2F5004F08D045F6256036E045F6FD
:1059F000C35033E046F2D52030E058493868884239
:105A000002D045F6C45029E04FF000080DB1C5F8AA
:105A10000080FCF7F1FE009023462A46314607F14C
:105A20002000FFF789FA8246208840B15FEA0940EA
:105A30000CD50098FCF7E4FE46F2B0100EE000989A
:105A4000FCF7DEFE504609B0BDE8F08F4248017811
:105A500039B10098FCF7D4FE46F663502080002050
:105A6000F1E78146012089F800000098FCF7C8FEA4
:105A70005B460522394601A8FEF7B7F9FCF7BCFEE4
:105A800099F80010491E89F80010FCF7B9FEFDF7DF
:105A900098FFFCF7B1FE364A0346116891F83500CD
:105AA00060B1012815D002282AD003284FF0000742
:105AB00019D0A6F8008046F62E601BE0B1F8600011
:105AC000CF6D308015B11068006C2860A4F800809C
:105AD00011E00027A6F8008015B11068006C28605E
